:020000040800F2
:100000000050002021020008270200082B020008EF
:100010009D020008A1020008E9020008000000009B
:100020000000000000000000000000003103000894
:10003000350300080000000039030008CD0800085F
:100040004D0300084D0300084D0300084D03000850
:100050004D0300084D0300084D0300084D03000840
:100060004D0300084D0300084D0300084D03000830
:100070004D0300084D0300084D0300084D03000820
:100080004D0300084D0300084D0300084D03000810
:100090004D0300084D0300084D0300084D03000800
:1000A0004D0300084D0300084D0300084D030008F0
:1000B0004D0300084D0300084D0300084D030008E0
:1000C0004D0300084D0300084D0300084D030008D0
:1000D0004D0300084D0300084D0300084D030008C0
:1000E0004D0300084D0300084D0300080000000008
:1000F0000000000000000000000000000000000000
:1001000000000000000000005FF808F100B583B0B7
:1001100000F0AAF9304B314A1360314A1360314B79
:10012000314A32498B4204D21168196004330432D7
:10013000F7E72A4B1A682E4B9A4200D0FEE7284B6D
:100140001A682C4B9A42F9D1234B2B4A13602B4A45
:1001500013602B4B02E000221A600433294A9342B9
:10016000F9D3254B1B6813B9244B1B6803B1FEE779
:1001700000F086F9694601A800F022F9224C234BD1
:10018000E41AA4100025AC4214DC214C214BE41AE3
:10019000A4100025AC4213DC0099019800F0CEFBBE
:1001A00005461D4C1D4BE41AA410002C0EDC2846FD
:1001B00000F0E2F8154B53F8253098470135E2E797
:1001C000144B53F8253098470135E3E7013C134BB6
:1001D00053F824309847E8E7BABADECA0000002096
:1001E00084000020000000201091000888000020FA
:1001F0007856341232547698880000202801002066
:10020000880000202C0100207803000878030008F3
:1002100078030008780300087803000878030008D2
:1002200008B5FFF773FF00BEFEE71EF0040F0CBF1A
:10023000EFF30880EFF309807146414A10472DE93A
:10024000F04182B004468846124B5E6B9F6B9D6AFC
:100250001B6B13F0020F03D00E4BDB6A002B0CDB81
:100260000D4800F0B5F8CDF800803B4632462946EF
:10027000204600F009F900BEFEE74BF6AB6100F046
:100280007DF90028ECD0034B4FF00042DA6202B057
:10029000BDE8F08100ED00E02813000800BEFEE795
:1002A0001EF0040F0CBFEFF30880EFF309807146D6
:1002B000244A10472DE9F04182B004468846084B95
:1002C0005E6B9F6B9D6A074800F082F8CDF8008056
:1002D0003B4632462946204600F0D6F800BEFEE7EF
:1002E00000ED00E0381300081EF0040F0CBFEFF320
:1002F0000880EFF309807146134A10472DE9F04159
:1003000082B004468846084B5E6B9F6B9D6A074827
:1003100000F05EF8CDF800803B4632462946204684
:1003200000F0B2F800BEFEE700ED00E04413000864
:1003300000BEFEE700BEFEE700BEFEE7704700001D
:100340003F020008B5020008FD02000800BEFEE7FB
:100350001091000800000020880000201091000883
:100360000000000000000000880000202C01002098
:08037000000000000000000085
:10037800FEE7000008B503460C4A12685AB10B4A5A
:100388001068033323F003030344094A934206D851
:10039800064A136008BD054A06491160EFE700F0F8
:1003A80001FB0C2303604FF0FF30F3E78C000020C3
:1003B800004C00202C01002001230360014B0B603E
:1003C800704700BF040000200FB400B583B004AB31
:1003D80053F8042B01938021064800F015FB0028F0
:1003E80003DD0146034800F037F803B05DF804EB7D
:1003F80004B07047940000202DE9F04385B004460E
:100408000F4643560BB10E461EE0042528462146EA
:10041800ABBE0446384605B0BDE8F08314F9011BAD
:1004280004AA1A4402F8101C0133AB42F6D304AAFA
:100438001344002203F8102C4FF00408E946404604
:100448004946ABBE8046761B002EE3D03546102EBB
:1004580028BF10250023E8E708B5FFF7CDFF08BD42
:1004680008B500F0FDF8024A024B9A6008BD00BFCB
:100478000000000800ED00E008B500F019F908BD1B
:10048800F8B504460D4617461E462748FFF79CFF59
:1004980021682648FFF798FF61682548FFF794FF11
:1004A800A1682448FFF790FFE1682348FFF78CFF15
:1004B80021692248FFF788FF61692148FFF784FF17
:1004C800A1692048FFF780FFE1691F48FFF77CFF1B
:1004D8001E48FFF779FF29461D48FFF775FF1D4C99
:1004E800E16A1D48FFF770FF216B1C48FFF76CFF9E
:1004F800E16B1B48FFF768FF15F0800F0AD115F470
:10050800004F0CD11748FFF75FFF06991648FFF711
:100518005BFFF8BD39461548FFF756FFEFE7314650
:100528001348FFF751FFEDE70C1200081C120008F2
:100538002C1200083C1200084C1200085C1200083B
:100548006C1200087C1200088C1200089C1200082B
:10055800A812000800ED00E0B8120008C812000850
:10056800D81200080813000810130008E812000841
:10057800F812000883691A888A4201D0002070475F
:100588000268033A012A03D80233836101207047C5
:100598000020704782B00023019300932C4A13680F
:1005A80043F4803313602A4B1B6803F40033009331
:1005B800019B01330193009B1BB9019BB3F5A06F0D
:1005C800F1D1234B1B6813F4003F06D0012300939D
:1005D800009B012B04D002B0704700230093F7E77B
:1005E8001C4B1A6842F010021A601A6822F00302C3
:1005F8001A601A6842F002021A60A3F580535A681A
:100608005A605A685A605A6842F480625A605A6856
:1006180022F47C125A605A6842F4E8125A601A6846
:1006280042F080721A600A4B1B6813F0007FFAD000
:10063800074B5A6822F003025A605A6842F00202D5
:100648005A60034B5B6803F00C03082BF9D1C2E72F
:10065800001002400020024008B5FFF79BFF08BDCC
:1006680008B5104B1A6842F001021A6059680E4A20
:100678000A405A601A6822F0847222F480321A60A2
:100688001A6822F480221A605A6822F4FE025A601C
:100698004FF41F029A60FFF7DFFF044B4FF0006230
:1006A8009A6008BD001002400000FFF800ED00E06D
:1006B8001F4B5B6803F00C03042B15D0082B17D0D5
:1006C8001BB11C4B1C4A1A6002E01A4B1A4A1A60EA
:1006D800174B5B68C3F30313184AD35CDAB21549A6
:1006E8000B68D3400B607047124B134A1A60EFE750
:1006F8000F4A53685268C3F38343023312F4803FAE
:100708000AD00B4A526812F4003F0BD00C4A02FB85
:1007180003F3084A1360DBE7094A02FB03F3054ABF
:100728001360D5E7044A02FB03F3024A1360CFE7DC
:10073800001002401C00002000127A000C0000206B
:1007480000093D0010B4012824D018B1022841D076
:1007580010BC7047072910D90F29F9D8A1F108044E
:10076800E4B2A4000F23A3402A48016821EA030346
:1007780002FA04F119430160EAE789000F2303FA3A
:1007880001F0254C236823EA000302FA01F119431A
:100798002160DDE7072910D90F29D9D8A1F1080070
:1007A800C0B280000F2383401C4C216821EA030358
:1007B80002FA00F119432160CAE789000F2303FAFE
:1007C80001F0174C236823EA000302FA01F11943E8
:1007D8002160BDE7072910D90F29B9D8A1F108036D
:1007E800DBB29B000F2098400E4C216821EA0000E4
:1007F80002FA03F101432160AAE789000F2303FAF3
:1008080001F0094C236823EA000302FA01F11943B5
:1008180021609DE70408014000080140040C0140E4
:10082800000C01400410014000100140034B4FF43C
:1008380080321A60043301221A60704700100240A7
:100848001F291CD801280BD010B1022810D07047DE
:10085800012303FA01F10A4A13680B431360704736
:10086800012303FA01F1074A13680B431360704729
:10087800012303FA01F1044A13680B43136070471C
:10088800141002401C10024018100240014B0022B4
:100898001A60704710E000E0074B58601A6842F091
:1008A80001021A60054A1160054A012111701A688F
:1008B80042F002021A60704710E000E014010020C4
:1008C8001801002008B50A4B1B785BB9094B1A6858
:1008D80022F002021A601A6842F001021A6000222D
:1008E8005A609A60044B1B689847024B1B6808BD06
:1008F8001801002010E000E0140100200A4A1388C3
:100908009BB20A49C95C0A4B1960138801339BB230
:10091800138013889BB247F68852934200D07047E1
:10092800014B00221A80FAE71A010020541300082C
:100938000C08014008B5FFF779FF02210846FFF7C8
:100948007FFF022200210846FFF7FCFE0222012158
:100958000020FFF7F7FE022211460020FFF7F2FE03
:10096800022203210020FFF7EDFE022204210020CD
:10097800FFF7E8FE022205210020FFF7E3FE02222E
:1009880006210020FFF7DEFE022207210020FFF7E4
:10099800D9FEFFF77BFF02497D20FFF77DFF08BDE9
:1009A80005090008014B1868704700BF20000020A7
:1009B80030B5141E05469BB0184605DA8B234FF058
:1009C800FF302B601BB030BD4FF40273ADF80C3014
:1009D8000CBF234604F1FF33029305934FF6FF73D0
:1009E80000910491ADF80E3002461E9B69462846D8
:1009F80000F072F8431CBCBF8B232B60002CE1D0A5
:100A08000022009B1A70DDE707B5009313460A46DB
:100A1800014603480068FFF7CBFF03B05DF804FB0D
:100A2800200000202DE9F0478E6882469E420C4641
:100A38009046994637D88A8912F4906F31D00223AC
:100A4800256809696F1A656905EB450595FBF3F596
:100A580009F101033B449D4238BF1D46530530D57B
:100A6800294600F035FB064650B90C234FF0FF30FD
:100A7800CAF80030A38943F04003A381BDE8F0879A
:100A88003A46216900F0B4FAA38923F4906343F04D
:100A98008003A38126613E4426604E466561ED1BB6
:100AA800A5604E4500D94E4632464146206800F0C2
:100AB800AAFAA36800209B1BA36023681E44266033
:100AC800DCE72A4600F05EFB06460028E2D12169F1
:100AD800504600F0B1FAC8E72DE9F04F9DB00393F6
:100AE8008B8980461D060C4616460FD50B696BB9D7
:100AF800402100F0EDFA2060206128B90C23C8F8E5
:100B080000304FF0FF30C7E04023636100230993B2
:100B180020238DF8293030234FF0010B8DF82A302F
:100B280037463D4615F8013B0BB1252B3ED1B7EBB7
:100B3800060A0BD05346324621464046FFF772FF5D
:100B4800013000F0A480099B534409933B78002BA3
:100B580000F09D8000234FF0FF32CDE90523049378
:100B680007938DF853301A932F46052217F8011B67
:100B78004F4800F02FFA049BD0B9D90644BF202271
:100B88008DF853201A0744BF2B228DF853202A785A
:100B98002A2A15D02F4600200A25079A394611F827
:100BA800013B303B092B4DD9B8B10FE02F46B8E7D0
:100BB8003F4A3D46801A0BFA00F018430490D3E7E9
:100BC800039A111D12680391002A01DB079204E0C1
:100BD800524243F00203079204933B782E2B0CD128
:100BE8007B782A2B33D1039B02371A1D1B6803928B
:100BF800002BB8BF4FF0FF3305932E4D03223978F1
:100C0800284600F0E7F938B14023401B03FA00F00A
:100C1800049B0137034304933978062226487E1C37
:100C28008DF8281000F0D6F9002838D0234B13BBD4
:100C3800039B073323F0070308330393099B4B44B3
:100C480009936DE705FB023201200F46A6E7002352
:100C58000A25194601370593384610F8012B303A12
:100C6800092A03D9002BC8D00591C6E705FB012145
:100C780001230746F0E703AB00932246104B04A973
:100C88004046AFF30080B0F1FF3F8146D6D1A3893B
:100C98005B063FF536AF09981DB0BDE8F08F03AB92
:100CA80000932246064B04A9404600F081F8EAE783
:100CB800DC900008E2900008E690000800000000C0
:100CC8002D0A00082DE9F04791461F468A680B69EE
:100CD80006469342B8BF1346C9F8003091F843203E
:100CE8000C46DDF8208012B10133C9F800302368C2
:100CF800990642BFD9F800300233C9F80030256898
:100D080015F0060507D104F1190AE368D9F800209F
:100D18009B1AAB4229DC94F843302268003318BF91
:100D2800012392062ED404F1430239463046C047C7
:100D3800013021D02368E56803F00603042B18BFAF
:100D48000025D9F800204FF0000908BFAD1AA368A4
:100D5800226908BF25EAE5759342C4BF9B1AED18BE
:100D68001A344D451AD1002008E00123524639466D
:100D78003046C047013003D14FF0FF30BDE8F0875F
:100D88000135C2E73020E11881F843005A1C94F875
:100D980045102244023382F84310C4E70123224657
:100DA80039463046C0470130E6D009F10109D8E795
:100DB8002DE9F04301F1430C0C46097E85B06E29FC
:100DC8001746064698460C9A00F0B38022D8632945
:100DD80036D00AD8002900F0B980582900F083805D
:100DE80004F1420584F8421032E0642901D06929EF
:100DF800F6D120681368050603F104012AD51B689B
:100E08001160002B03DA2D225B4284F843206F48DF
:100E18000A2239E0732900F09D8008D86F2920D074
:100E28007029DDD1236843F02003236003E075298E
:100E380017D07829D4D17823654884F8453055E00F
:100E4800136804F14205191D1B68116084F84230CB
:100E580001238CE01B6810F0400F116018BF1BB213
:100E6800CFE713682568181D1060280601D51B6890
:100E780002E06806FBD51B886F2914BF0A220822E6
:100E88005248002184F843106568002DA560C0F21F
:100E98009580216821F004012160002B3DD1002DAF
:100EA80040F08E806546082A0BD12368DB0708D5F9
:100EB800236962689A42DEBF302305F8013C05F1D8
:100EC800FF35ACEB05032361CDF800803B4603AA50
:100ED80021463046FFF7F6FE01304DD14FF0FF3086
:100EE80005B0BDE8F083394884F8451013682168D7
:100EF8001D1D1B6815600A060BD5CA0744BF41F0C3
:100F0800200121601BB9226822F0200222601022F1
:100F1800B7E74D0648BF9BB2EFE76546B3FBF2F172
:100F280002FB1133C35C05F8013D0B460029F5D1DE
:100F3800B9E713682568181D6169106028061B68E1
:100F480001D5196002E06A06FBD5198000236546C1
:100F58002361B9E71368191D11601D6862680021D3
:100F6800284600F037F808B1401B606063682361C9
:100F7800002384F84330A7E723692A4639463046D8
:100F8800C0470130AAD023689B0713D4E068039BAD
:100F98009842B8BF1846A3E701234A463946304667
:100FA800C04701309AD00135E368039A9B1AAB42D7
:100FB800F2DCEBE7002504F11909F5E7002BACD1C9
:100FC800037804F1420584F842306CE7ED9000089C
:100FD800FE90000810B5C9B202449042034601D100
:100FE800002303E01C7801308C42F6D1184610BD6E
:100FF80010B5431E0A44914200D110BD11F8014BAF
:1010080003F8014FF7E7884210B501EB020307D850
:10101800421E99420AD011F8014B02F8014FF8E735
:101028008342F5D98118D21AD34200D110BD13F8E2
:10103800014D01F8014DF7E738B50546002943D0C1
:1010480051F8043C0C1F002BB8BFE41800F0D0F88E
:101058001E4A1368104633B9636014602846BDE819
:10106800384000F0C6B8A3420BD9216862189342F1
:1010780001BF1A685B685218226063600460EDE77C
:1010880013465A680AB1A242FAD919685818A042F8
:101098000BD120680144581882421960DED11068CB
:1010A8005268014419605A60D8E702D90C232B60B2
:1010B800D4E7206821188A4201BF116852680918CC
:1010C800216062605C60C9E738BD00BF1C01002078
:1010D80070B5CD1C25F0030508350C2D38BF0C253F
:1010E800002D064601DBA94203D90C2333600020FA
:1010F80070BD00F07DF8214A1468214691B9204C52
:1011080023681BB9304600F063F820602946304652
:1011180000F05EF8431C24D10C233046336000F005
:1011280068F8E4E70B685B1B18D40B2B0FD90B602E
:10113800CC18CD50304600F05CF804F10B00231DAC
:1011480020F00700C31AD3D05A42E250D0E74B68C8
:101158008C4216BF636013600C46EBE70C46496887
:10116800CCE7C41C24F00304A04205D0211A304661
:1011780000F02EF80130CFD02560DBE71C010020FD
:1011880020010020F8B5074614460E4621B9BDE8EF
:10119800F8401146FFF79CBF22B9FFF74DFF2546DF
:1011A8002846F8BD00F026F8A0420FD2214638465E
:1011B800FFF78EFF05460028F2D031462246FFF79A
:1011C80017FF31463846FFF737FFE9E73546E7E7C7
:1011D80038B50023054C054608462360FFF7CAF8D2
:1011E800431C02D1236803B12B6038BD24010020C1
:1011F8007047704751F8043C181F002BBCBF0B58B0
:10120800C0187047537461636B206672616D653AEC
:101218000A000000205230203D2020253038580A8E
:1012280000000000205231203D2020253038580A87
:1012380000000000205232203D2020253038580A76
:1012480000000000205233203D2020253038580A65
:101258000000000020523132203D20253038580A45
:1012680000000000204C52203D2020253038580A2C
:1012780000000000205043203D2020253038580A27
:101288000000000020505352203D20253038580AD5
:10129800000000004653522F4641523A0A0000000F
:1012A8002043465352203D2020253038580A00005C
:1012B8002048465352203D2020253038580A000047
:1012C8002044465352203D2020253038580A00003B
:1012D8002041465352203D2020253038580A00002E
:1012E800204D4D464152203D20253038580A0000F7
:1012F8002042464152203D2020253038580A00001F
:101308004D6973630A000000204C522F4558435F13
:1013180052455455524E3D20253038580A00000099
:101328005B486172644661756C745D0A0000000078
:101338005B4275734661756C745D0A005B55736139
:1013480067654661756C745D0A00000091A9A18704
:101358009283796A6A626C616854588489756E866A
:10136800909475867E796969687469655B649494FC
:10137800847B969F9D7C867973635B59645A574C2E
:10138800578C9386788F9EA482897F7F70615E6A6E
:101398006760575C97A69C8DA6B9BEA3A69C958648
:1013A800736E6E6A625A548192918090A8B4A59C1B
:1013B80095918D736F6F726B645D83A2A49A9EB8CA
:1013C800C3B9A8A09C9C7C6E696864514253767D21
:1013D800766B7F939C8F81808B7E625858685D4EB8
:1013E8004F6C818478839AAAAF9F989DA091796267
:1013F8006967524242535B57565E6D80817E858C89
:1014080093958C8A8C8B878787868081817E828260
:10141800828381818280878A88898A8B8C8684816D
:101428008289898586858586848B8C898B90908F27
:101438008C8F908D8D8D8B8B87858583878A858210
:101448008384847E7D7C7B7876737877736F6E7502
:101458007875717476797372717374737075797A3B
:10146800797880878988898687817D797775736C93
:101478006D6D6D6B65686D6D6A717378777B81874B
:101488008A8B8A8D9190908D908F8A8487878A85A0
:1014980081848A8D8C87888C8A868286857F797EEE
:1014A8007F837F7B7E8186888B8F969796969DA279
:1014B80099919092928A83858786817A7878756ED9
:1014C8006A6F746D6664676867666C72797D7F821F
:1014D800878C8886888C87837E7B78736D6B6B6D31
:1014E8006D6C6F71757173777D7B7C7E807B74709A
:1014F8006E6E6D6F72777B8282878E9593939597C8
:101508009188827F807D7A797C7C8280848C918BA3
:101518008A8D95958F8B8B8B89868486848582822C
:1015280085898585878D8E8D8C8B8C8D8D8B8D8C0B
:101538008E88858788838181817E7776736E6866D9
:101548006464626665676D7273777D828381878B59
:101558008C888582827F7F7B7B7C79706D6E706FD3
:101568006B6E73787874707270716C70787B787A3F
:101578007E84858385888C8E928F908E928D8D8FB8
:10158800908C898B8D8A837F7B7B7B7D7C7C797D2E
:101598007D81868D8E919294928F91929695979651
:1015A800968E8C898B8A878181817F7C777A7779FF
:1015B8007777777977776D6D6E6D68696F75777501
:1015C800787A7D7B7B7B7C797C7B7572717276798E
:1015D8007A7975736E6C6C6D6D6C6A6F74787574EE
:1015E800747D8489888E93959695918A857B797880
:1015F800807D766C747D868688929BA29D9A939254
:10160800857D747B7C77696774838C888D929B92C7
:101618008779756E6A676E828D9298A8BCC5BEB5CB
:10162800B3B6B19F8E817668534D4E57545A5D6D4F
:101638007C8281818B8D8B776D6264545057626C8C
:10164800727A859CA5A6A3A7A59E8875665C51435A
:101658003E45505A5F6D818F979392938F857B7229
:101668006C6867646D82A0A7B0BBCAC7BCB0A599F7
:1016780081715F59494B46474C6C858A939FB7B92E
:10168800B5A8A08D7C68605C5C5F5C6081A7B7B71B
:10169800BACAD3CDB5A692816B64555858584E5BDB
:1016A8008DA6A99AABB0AE8D7C665A44444846567E
:1016B8005C645683A3AF93929CA494776F625A3F5D
:1016C8004F4C5F5D625C5C849BA3889DACB79C8833
:1016D8008075684D61616D5E63615F788E998098F1
:1016E800AABDA8A1A29B8C74847C7C717A7674882C
:1016F8009BA08A949CA18C7E786A6256666368690E
:10170800726D627E9BACA0B4C4D1C0ADAA9B907927
:10171800827C827F8376668499997A8891927A6BA3
:101728006A574C3649485255635D547E9A9E819F4C
:10173800B3B49E94947D6A566D65665D61533F5F50
:10174800767B5E7A8F93827F8F7B7165807C786EE3
:101758007B8067819CAA8898B4B8A3919C82715DAC
:1017680075776E6D7882586E8B9C7986AFB4A58339
:10177800967F725A70746C7177875F7B9AB08F9678
:10178800BEC3AF92A99B896E767F77797481626CAC
:101798008A9D847FACB0A17F918162454A625A5C80
:1017A800546C4D4B6F85735E89989374848A726507
:1017B80068867A766979655A81958D6A93A39F7A46
:1017C8007C8366574F71686D62756C5D7B8E8E7316
:1017D800A3C0C3A4A2AB8E7B69847D7E72817E6721
:1017E80085999F7C98ACA58077856B59486563641B
:1017F80063767A6486A3AF91AACFD1B9ACC1A5911B
:10180800778A8C877E7A7C556B7C86606E90917C1B
:101818006A80695C47616F6B64657859708C9E7CDF
:1018280080A6A895758A7561465D6B625D5B704F91
:1018380060788D7173A2B0A0809687725D697B74A1
:10184800756F846A748E9C8C85B2B5A985978D76E0
:101858005C5D7771746A856E6E88A09684A8B3AD56
:101868008A98967B615F7C777B748A746784999287
:101878007297A7A88A98A28E8282A49FA18E997F28
:1018880068809289688699997C7B80664F415D6003
:101898005F535D5E4963757E607999A28E86967FF7
:1018A800725E7B7A75666F6F5268818E6C7FA1A7B6
:1018B8008C7C8C7A6A57696F696267735468849400
:1018C8007B8AB8C3B6A2B7A5957881868278727BE1
:1018D8005C63798D7472919B8E788B847460698057
:1018E80087857E8F7A7D97AC9C90B4C4BC9FAEA54B
:1018F80090747287847868765F556E8878658CA551
:10190800A387918E72595568646053695D537190CD
:101918008D7390A5A5837D7A6450455C6160566A95
:1019280069576D90977990B0B6978A938878667A58
:101938007D7B6C79795E6D878E6E7D9BA38A7F8EA9
:1019480082736177888C828A92758099AB8F92A610
:10195800AB9984897A6D566475797175846C7290C7
:10196800AA9389A5B7B49EA5A099838698958778E8
:101978008569667B92806F8E9F9F7D7B6F644942ED
:10198800585D584B6055566F8C857691A2A58B860D
:10199800837F6D5F72797867746C606F847F697E0E
:1019A8008C8F777175766A5B76898D7E8A88778069
:1019B800939B889AABB1A1969286755A69777A6893
:1019C8006D6F5E6B8595818897A29A8B8A877F6BEE
:1019D800758C948683877E89A0A6969BAEBDAD9AAA
:1019E80094948C6C6B79877465625C6B7F87768363
:1019F8009FB1A88C87888666596670645456515E74
:101A0800717B6C6C7F8D89757272715E5B6978759C
:101A18006D716A738692858294A3A6988B888C7A56
:101A28006A707B786661586074817C798CA0ADA0FF
:101A38009A9A9D8B787F8C8C7A7069728691847D56
:101A480090A2A694868483725E697C8376706E7792
:101A58008D97918DA1B4BFB3A9A6A89D89899495A6
:101A68007E6E64647178706675899388756E726C21
:101A780053526270696260667B8680738498A4980A
:101A8800867D837F665A616B61574B506778746CAB
:101A9800798E9A978D8B969F8D7F848E88796B63CC
:101AA8007385887C8399ACAF9E8E91967F67646EB0
:101AB8006B635852627E8B838297B0B6A89598A2C2
:101AC800937D7D868982766C76909C8E8391A9B26F
:101AD800A48E8C9890776D79817C6E6269849286E9
:101AE8007B8BA5B2A48A848B7C5D4F545954483DA6
:101AF800455C736F64728B9B907E7B8D8874696F75
:101B080078766C5E5C6C8687797D94A6A28D7F88DA
:101B18008975646570746D5C5465859285889FBA13
:101B2800BDA9959CA08C75717A7D745F5562808D76
:101B3800807989A2A6957F80887B69677885878068
:101B4800787F99B0A899A2BBC6BCA3969C977F6FD3
:101B58006C6D6C64544F617E8476768CA1A08C7811
:101B68007D8475626069706D5F53576F837B707C8D
:101B7800929A90776F78705C545B646C6659536383
:101B8800818F847F92A8B09E898A938D7E7A7D8684
:101B98008374626277929381869AACA284696D7825
:101BA8006D5E60758685746A7591A7998A96B1BBD2
:101BB800A78879898D796570838E8473697492A0FA
:101BC800938999B1B9A88D8698967D6F7B868B7A13
:101BD8006859637D8F80717D90977E655C6D6655D1
:101BE8004B5C686D6356535D7586807484969D8DD5
:101BF800807782837869707B7F76665C576A7E8996
:101C0800777B84949287737C938E7F7E92999B8551
:101C180079717B8D9C8E7C82969F8C746A7F7F6D98
:101C280065777F8176685F5F748E9D8C94AAC1BB4F
:101C3800B3A099A69C8779878A917A6B676B778816
:101C480092828A94A9A39476748377666578737769
:101C5800605D5E59637F8E7582899F9A886F68750B
:101C680069605363636B533F3E465C7492848F9CF8
:101C7800AFB8A986788F887A6E7E817A6B5B655F4C
:101C8800677498958E9EA0A8A498757D7C746A6DDB
:101C9800777D826C6D71767B9AAA918D91A2A79CB3
:101CA800776E887E716A8387928B7F847E8188A90C
:101CB8009A949AA2A5A69B73838F897578868C8D32
:101CC8006E71746E657F8E76757584817C5B5064E9
:101CD8006867636C70887E696664616987827C7EE8
:101CE8007E868E84616B7C746B717C7E806A636592
:101CF8005D58728D848E9EABAEB09C848E8E857836
:101D0800787C8A8468666962628392888B94A6AFBD
:101D1800A68584928C86858C8D958371706D687389
:101D28008E8F959A9DA6B2A4858B8F887772737EC5
:101D38007B69686C5F5F809388848F99A4A0856FA6
:101D48007B7971675D6273715B5D60595E7B8D86BF
:101D5800888B98A49572676E615C5B60666D66613E
:101D680066605F6F89898A8F95A0A48F71747F845C
:101D78007B73798C8D7A74746561798E888384938A
:101D8800A4A2887982868C867D8599998A817E79B4
:101D98007F9299949094A5B2A18585908D82797E41
:101DA8008B8F8378756A60738A89868995A8AC96C3
:101DB8007A777F837866687A806F605D5559708519
:101DC8008A878898A5987F7174737068636A73703E
:101DD8006155505364768387868B9FA794756E7878
:101DE8007E7766697C867C736F6B6D8192948D8E2D
:101DF8009AA9A38C7A77797A736970828B7D7070CF
:101E080073788C9DA0999CB1BEB092868D92887D86
:101E18007C848E8D7A6C686D7E929995919AA5A531
:101E28009477707D878177747C80796A655E627645
:101E3800909183808C97907B68727D7F74696C79B0
:101E48007E6B5453586A7D8478737A8D93856C5E63
:101E5800717B7B6C6F768182736961627491958CFA
:101E68008598A9A490716F828F806F74848A816726
:101E7800605F687B95998F8EA5ADA7957D8296A3A7
:101E88008F8289929089716A697890A8A19093AF9E
:101E9800AFA2856C78918F6C67727A7E7763595C94
:101EA800809EA8918696B2A388645D75836D43561B
:101EB800768C7657495570919C92838AA5977C5F5A
:101EC8004E5C6E685C6682856C59555F4F5381B372
:101ED800B9A28C959C8A604A6E92907A7F949A7A7D
:101EE800616371675A6CA2C9BD88738C9A7D5C68FE
:101EF8009AAF90767F9992776375857E6F90C8DAEE
:101F0800AF7C79949B837083B0B5917479857A5E40
:101F180058647660557FBED3B3785E7F9B8D6259D7
:101F28007FA38E6A677874675E656E6D6666759066
:101F38009A898287857470797C6C61606E6F686934
:101F48007172675E6A7C71656D7E878792A8AC9EA8
:101F58008272737C7A7E848F8B7C786B6A77877CBD
:101F680077777A7F7D7F8D918B8A98AAAEA18683B9
:101F78008882778D96918A9088888C7B88978176DD
:101F8800878F9081848D989E9E9C8B6C6A746F77E6
:101F98007E808B837A757478687988746F7D78769B
:101FA8007D8384736F7F8D90827B6E605F666870BF
:101FB8007D72736E687A7168796D737870807971E3
:101FC800827769797E868B91806B6C7E888F968EFE
:101FD800988A8B917275827879757D6A70887B7220
:101FE80088937E89A2A5A299898B85848F908D9BE1
:101FF800A4887C95857E8893918785869A7F7D8A3B
:1020080087717F8A7986899080847E6E7E797D85C6
:102018006E6C7777777F7A717F7A7B807B7F81821E
:102028007A6E6B7B6D6B7C767168676A5F657D70B5
:1020380073808C826A757878716F7B7C747E7D8002
:10204800877F807F808C888087848A897B7E847D57
:102058008E8C89847E7B76867A8284858281888844
:102068008C7A909790A399979D939A9B8591978442
:1020780081838487877684867984777F82857C8F3D
:10208800847292718487718C7B75836C7A84767A7A
:102098007A757C7176776782827475767C7A6B85BF
:1020A8007E6666737668676A716369787972617447
:1020B8008D7B73758380898A81837887877B8D8AF6
:1020C8008080798683887F8190878282867D807FE1
:1020D800818B7C7E83888C81898D808898989A985A
:1020E8009492948B979C959995928789807B848804
:1020F800797789797B8772727B7380887F7D8C99E9
:102108007D73898B7A7B857A7573797A6B6E6A6D44
:102118006C6F796D6C7285746F7E7273847F6C6E70
:102128006D6770637187726A7B73677D7A88808553
:102138008A77777C8990878385748287898C7E7F6C
:1021480087867D8589807E7E8487857F8A8A819837
:10215800918789878C8093948390917C87938991C8
:10216800919DA890879E8C7988937D7E7E79866FD5
:102178006D85786A7D75777B787F867E86847C7BA3
:10218800748290777483796F707B7674666C7471DF
:1021980068797A6972716A687B7479797268777913
:1021A8006F7A6D716E8177738D7D918F6E869C8647
:1021B8008C9580898F8281827275977E6B87757600
:1021C80089787B847884958E8C9094889EA3938E4E
:1021D800999A9694839187867F8A8C7A918D78864E
:1021E800887B978B738A8882867D8185786C817BD2
:1021F8006B73827B767C778886778780667F887525
:102208006E7C7D6B7A6B5B7C6262876561806F65D3
:102218007C6F707A767278867E82847879786D6E33
:1022280069797D747B787C928274908B8496957C96
:1022380085968C9089728B85727A7B727A8371828B
:102248008A8282918E8AA4918EA89997A0968E9759
:1022580092828E86858B7C7B84827F8C7F7C808239
:1022680080886C7D9E68788B6B7087757A807876AD
:10227800857D768A787586766C8678737D798174A3
:10228800646D796B686862756A586B7A6D656D798B
:10229800787B837A8C87718C866A88837688847E3B
:1022A8008087767A8879888477878E8386918B82EF
:1022B8008B807F8F737C8B7F84887E878E8E9091B6
:1022C80095898A9E8F8D9C919B9B8A929179948205
:1022D800828B7D7E778075807474807F707781852E
:1022E8008C868681848184897F7072776B6D646443
:1022F80077665F67776D6E8A81828B71838E687D62
:1023080076596B76675D695E5F7371758D907B97A3
:10231800877B938273808F7E8785848A9684849551
:10232800817C93837C99706C7C6B57787959747E27
:102338006599A676AEB575A5A95D949A7F8B9181AE
:102348008C928B9CA58F8EB38B809DA09B8B689D58
:1023580083647B777D7D5B6B936D7D79767C876B02
:102368006E7C72727C756C88807C806F657667562F
:102378006D806467826274945973945B5E97776D1D
:1023880094676CA1785D836C719C7866A3926B8668
:102398009B8E85777892867F869698827C958270C8
:1023A80097725A8E7B53746260988077999696A834
:1023B8009894A4979C91819288839190768B92911E
:1023C800A09292ABAA89A29E837E896B787C5D5D80
:1023D8006F6A5E6A6686897C7780747C8C8A75727F
:1023E80075837A5D667A7C72726F787075787A6DAB
:1023F800746955556D6D696F7B7C78827C93AFAA43
:102408007589907E747169868A68637A7B67838A26
:102418008372817F90AAA892A5BBA86F474F646E6C
:102428006D717C8E77758698968F8171687D99B36A
:10243800CED6BBB5B3997C6C838F998B887981791B
:102448007176716157474D89AABEB4B3A9997E6068
:1024580055676B6C69616B6E625F65615B4148884B
:10246800B8B4B29BA6AE824542697257485C6D6E9D
:1024780054566464515571A8C5B5989EC6BB7B5621
:10248800678E8D61556C858577656E645669A1BECA
:10249800B1989DCAB36C56708484676573787B79EC
:1024A800736669788CACBFB0ADC1CCBE9F8EA6A355
:1024B800928C867E7C706764455A7B7A838B809B7E
:1024C800A388867D7B867B767F7969706A685836B3
:1024D8005784898183719596736C7C827D736F882C
:1024E8007B6C54595031377588757E8097B19973D4
:1024F8007E969588787D8A856C5966614568AAA01C
:10250800938E98B5B9837686837A74777D84685973
:10251800526A4A66A6ACA0A5AABDD2898799978BAC
:102528008172819F83836F7B7472A9B7AA9DA5AAC4
:10253800C8936C918164546A5F726164675B5E469C
:102548008EA08D738EA6BFA8618B907B4B475B7264
:102558006455725A614367A999706E89959A547047
:10256800937E60587F887E5E8674594F47929D7728
:102578006C999FA89078B3AC9479879F95706F9069
:1025880053493261A487586FA29AA07198B5998669
:1025980086A2AF92799D946260528CB18C7F9CB870
:1025A800A9A790BBA8A28B7E968D7476835C5546AE
:1025B800417A856A6A878F8D8E818E8A8C6C7F8B33
:1025C8007B7C7B755B5E4C45728173708C80878BDE
:1025D80076737874577573666F7B6F646D62778FE7
:1025E8008A7D8091828A807D868B7B778D877F81AB
:1025F8008E8C726A66779084747F988A9B8A908B97
:102608008B79758884736F8681786F6A8EA69891A6
:10261800A1B4A9AD9BAAA5A98986918E85837B6F54
:102628006E6559688985737B9694A58989909A7196
:1026380072726D686B5F64605B585E8684837C959C
:1026480086A4888B8C92706D735E5A58584B5D5275
:10265800534D7380827E9B93A49B97A3997875832F
:1026680069707382646E64715764868F828AABA2C4
:10267800B39B9E9D9B7E857E646B766D67725A6266
:102688005D749C978AA3BFBDC7B7B1AEA189848A80
:1026980078858A8B878F75735F5C7D7B7378969658
:1026A800A392959690706E866B737A7D6E77686745
:1026B800613E6A897E65889A96968D8F8A7D5C735D
:1026C8006F606D6C615E6C5B5E4D4D7887766D9E5C
:1026D800A09C8F919999775F80786872837B7986BF
:1026E8007F7B725D829B8577A598929B9F908C7A61
:1026F80065807464769984858E938788666FA094C4
:102708007493B3A7A9ADADA59F80909A8A89A58C2B
:10271800767D7A645C4D4477897177A59D999D9300
:10272800899072688271637C846D7A7A7061644A78
:10273800557E746785967B8D8E88847F626E7F67F1
:102748006B817967756F6A69563D6B8568608C9592
:102758008F9EA19AA4957C9890848A93737C85789F
:10276800646852488179657EAD989FADACA3A28418
:10277800829B7E778C8F71828A7D787A6285AD9311
:102788008CB8BEABB9B29F9789677875606C887949
:1027980073807E6F6A54457A815A6B9F9190A19895
:1027A8008F9D7F75857971807B5C6873624E51342B
:1027B800557D65568A9B85929A8D8E84647B806848
:1027C8006B7E6967726B545F525489917996BCA687
:1027D800A5B0AE9FA2817C82756A7975656D7665B4
:1027E8005F62507D977F7CB2B1A2A7B1A4A2948604
:1027F80091938E8E9B8C898D847076626D90896E94
:102808008CA4928F9F96909786858A857B887A6A12
:102818006B7358564C51747C657AA0938B989D873E
:102828008A7A7E7E7B6C7779675E625048473A5F2A
:10283800756260959A9095A495998B7D79786C6965
:102848006F6463716F5D6E60718F8C7BA1AFA1A1A6
:10285800AD9C989A8583837B78836F6167705C5D94
:102868005463838A7B94B1ADA9B8BEB5B9ABA3A5AF
:102878009D858E897B6E7562605A53697D757299E4
:102888009E9697A3969C9483828B8078786C6264DA
:102898005E525D5E5F727C6F7E8E898599938A92A7
:1028A8008C80817C6C6962524B5857595F625D6EAF
:1028B8007D757382837E878F8B8D91949D9C938D7C
:1028C8009586766E726D73736E6A717F7F7F81886D
:1028D8008A9193938E908E8E908F8B8C8882807F36
:1028E80080848F938F8C8F929992878A92929093FB
:1028F800938D8D87817C79777F7E737582827D83C6
:102908007D78797A7679797578786F707475777754
:102918007678746B747F807878777C7D7A787B7B27
:1029280074717372716F6768685F585F5F5F656C19
:10293800707D868D999E9B9DA49D97979694908671
:102948007D7D7A706C676970757577797A7C7E831E
:10295800868A8D959CA09E9FA2A19B928F91929210
:10296800908B85858A8C89848385877E7B81847F0B
:102978007F7D7B7C7C76737875767B7E7D7F7E7FA2
:10298800837F7B818680818580807E6D66686967AC
:10299800635E656B6A6F6E7076797A7B7C7F837F06
:1029A8007A7676767670696A6E7171767D848685B8
:1029B8008786878485888889909896938B8A847F70
:1029C8007C7C7E7A7A7E8383827E7B7D858C888CF4
:1029D8009496959190959B999995989B99938E909B
:1029E8008D89807C7C79726F737D8282888B8B89DC
:1029F80088807D797677756E6B70726F6A6E757D7B
:102A08008083898E928C8380807C7365656A665F1B
:102A18005E656C6D696B707071716F727979797AB6
:102A2800787C7C7A7D838B95949392908F88827F33
:102A380082817D7A7D84858280868C8B878A92923A
:102A48008A837E7B7C7E807F80878B8E8D919B9C0A
:102A58009D9C9C98948D888482827C7D7E888D88BC
:102A68008183878686848583837D777270716F6D95
:102A78006D71767A797A7E84898178777D7B6F6CBF
:102A88006F7673706E75736E6A696F777A6D73752A
:102A980079796F666B747476727E7E7F7A798086B8
:102AA800877E7F7E8A8B7E798289878A88909390B9
:102AB800898C8F8C8D848080878174727B817E81E4
:102AC800868D8E90939393969A96929398928784F4
:102AD800888C8583868C8D8985838584847A7274B5
:102AE8007D7D716B707A7877777F84807B7A7D8142
:102AF800847B757378766E696B6F6E71747A78798A
:102B0800767372777A6F6A6E79776E666A716E70AD
:102B1800787F7C7D848786868885807A80878078A0
:102B2800777C828A86888E918F8B888C938C818320
:102B38008E8B837D8087888683858B8C8C8A85891C
:102B4800918C898D9699938D8B8F8E8D8D8E8E8C91
:102B58008A868280857E72707A807A71737C7977B2
:102B6800777C7F7B7A7B7A777C7D777074777470DB
:102B78006B7075777776797E7F7978767A786964FD
:102B88006F756D67666B6D6F71777E817F7D8285EE
:102B98008E8A7D80898981807E83837F868D8B8ADA
:102BA80094959189898A857C808D867B7A84857FB6
:102BB8007F8489898B8F96939398968D8C9596911F
:102BC80089878B8C89888B888682838285878073A6
:102BD800747F7A7670727C7B71757C81807D82824D
:102BE8007F807973747875726B6A6E6C6D6F7673AB
:102BF80077767874767C756E6A7879726D73767488
:102C080075767C7C797A7F7F7D84827D75798585F0
:102C1800827F85868A868C8F8E9293938D8E878409
:102C28008084867E7C7C84868889908E8B8C8B8F32
:102C38008F939188878E938B86858B8D8A8A8D90CA
:102C48008D938D888486877F79787E7B746F747383
:102C58006F71767775757A827F7E7F7A76797C79DF
:102C680074737677737172797873707071787B6F1B
:102C78006A70777271737779797B78737171717C07
:102C8800797581837880908B858A8F8C8C92959AC0
:102C9800988F8D918A898F887773898C786E828EC8
:102CA800817D878D888C898F908B939487848F8F73
:102CB8008C838E998E858B9D988B8B8A8E93837C43
:102CC800807A7E7B716B73756A70706E76746570CE
:102CD8007C6D777E6A6C7B7C7577787C827B7D8265
:102CE80088807E807D7C7F7C706F6B6D6961616997
:102CF8006B626A6E6C6F716F757B7C807E7D889568
:102D08009185858F96938D98A59B97989696959083
:102D18008C887E7F807972777A727071797A777F02
:102D280088888690968E92A5A89E9BA2A69C929330
:102D3800968B7F7B7A7C8380737674757D7F7778BA
:102D480089847E7E7C6F69625B6461615A6A736B99
:102D58007C887B7D9D999199A5A19791847B6A58E0
:102D68005045393B3B5159495F83817DA0A8999CC7
:102D7800A89B908F8777685C6260524F59878376EB
:102D880098BEB4BAD2CFC1BBB29D8D75736A5A488A
:102D9800534845465D847B7C9ABBB1BFCEC8AFAF74
:102DA800A9957A6C77766A68726D6D5D8BA9908843
:102DB800B6B89BA7AE9F8D7F626B51434A553E457F
:102DC80052484F4A7A8C8376A8B0A4A0A8A2958AC4
:102DD800788E79716C866F6C565C4C44676F62585C
:102DE8008079877E83758461646D6A6B777F6E8175
:102DF800687E69859EB199ACBEBAC0AFA59B9F7429
:102E08007D7275667E726F665F65587B8788779777
:102E18008E999D9C96A290778889908B998F9D8D8D
:102E28008E8A84A1AE9A92A6989D907E717C584312
:102E380045465259645C715F6960608BA58B839CC1
:102E480099AAA18C7F916E5C62636E7678737E6BB3
:102E58006B61546C84736D7D7E8D8F766A71574675
:102E6800464A62707B8490868A88788AADA499AC39
:102E7800B1BFC2A68F9480675F61748686888C868E
:102E88007869575F858A7E8597ABB8A595908970D4
:102E980060657C969DA1A1A7A2907C71819C978773
:102EA8008EA5B6A286767561443744657A847F7BA1
:102EB8007371614C40628584798BA8B3A88B7E7C42
:102EC8007256556789A1A18D838075543F2F4A7129
:102ED8006B5E6B8B9A927363666C5657668DB7B947
:102EE8009390938F79615168A0A3969FB4B9B78BDB
:102EF800757381675B6288ADAA827079766D52536B
:102F08004786A7AA9DB7BCC9B28876838A677A7AAA
:102F1800B3CAB3778C85826E5A44569D9D95869C1C
:102F2800939F6B575474625B6778ACAA7F55796D31
:102F38007C5F523E6BA0A68F828E8F975D5655742C
:102F48005D5E5E80AB9D66526E657851433B6D9CBD
:102F58009F7E76869095686476967D767B9BB7A6ED
:102F68006E6B8985977F655C8EB9C39A8993A39E9A
:102F78006D66728A766E7594AD9F746F918D8C7242
:102F8800585B90BBB094868EA0A576718A9A928180
:102F98007E98B09D776985858162443F5C8D9C7A77
:102FA800586272886C586A7F857373899C987859BF
:102FB80072796B664E495785ADA37D656C8D8F65BB
:102FC800636F7D74616475827252596F6B7061585A
:102FD8005D6D9ABAA88A8398B29A7B7D94A2887309
:102FE8008297A28A6C7D8E8E8473747487B6BD9D19
:102FF8008989A3B0928596B0A9918D95ADB0878641
:103008009C9A967D676A6C87ACA88D8091B1AD8DCE
:10301800838F9E8A716F7E94825A616B645D41349E
:10302800372A507877585264827658587FA99F8EED
:1030380091ABB39F727C858B785D4F4940638C7BE5
:10304800513D54786A3B406F9180747E9EBFB89919
:10305800A4A4A596857C786C92C4BF917B90B2A6F7
:10306800766C8EAA8B727090AA95718485826B5C3F
:103078005856405FA0A1705B6C8F91655A7C9A7618
:103088005D61809D8961727D7C5B514C49355AA395
:10309800A678657CA7AB7B7CA1BC98858BAABD98DC
:1030A800657A877E63504E564C70B9BA8D778FB467
:1030B800B0877EA7C7AB9192B1C3A47885837756B2
:1030C80042444632589E99664D60818351417292BE
:1030D80078676D91B3A67F99A3967F7B746B5880B0
:1030E800BFB2785C6F9490584F7896806A688CAEBF
:1030F8009068848B847B7B807F6A9BE3D89E899EC3
:10310800C0B78077A3BC9B7F7C9BAC7F5F71695203
:103118003B33352E1E5D987E53526C928450588CEA
:103128009A786A7398AA7E6B8585715D4F50494C71
:1031380092B38D605E799775506DA7B3978F9FC6D0
:10314800C58F8BA39383776D786A82D2DBA882843C
:10315800A1AE7B59749F967C7787A69D75879781CA
:1031680073676061507BC5B9805D6A8E8E53446B0E
:103178008B7559566C8E76536F7B6D66616F776869
:10318800A2DDC3887383A391585C8B9F79606784A1
:10319800946549727E6C665A62625E9FC9AA807E97
:1031A8009ECAAF808DBFC89D878FB4C18C78938726
:1031B800705E443F303D828E5C36406077492942DC
:1031C8007F8A6E758CBCC19397B59D866F6064507D
:1031D8006CB0B8825C6387925C476BA59A7A87A4C7
:1031E800C3B380879C857C67606B5F92C8BD937F03
:1031F8008CB5B0807EAAD4B2928FA5B58A57636C7D
:103208004E4331353E3C7FAE96625A71A0875F646B
:103218008AA87F696D90A0765772716A664D554B82
:103228005199B793636387B0896874A2B98679871F
:10323800A9A87C668182786D5D6A546CB2BC907472
:10324800799DB77F6D85B2B19191A5C9C391899DCB
:1032580087745A474C365B99906753587B7D433F38
:103268005884765C617CA4967181917D7D6C6C64D8
:10327800599BCEB5887483AF97686C8EB193787F6D
:103288009AA6825E706D5A5F57645960B7E4C39C12
:1032980098B7DAAE8B98BCC89D8891ADA3705B6A6D
:1032A8005A484238442C489AA5714F57859961531A
:1032B80072A1986C6882A7996E76907C7067697025
:1032C8004E6FAFB2835C5C8A8F56445E8E846667AD
:1032D80093BAA17688A0978B6E6C746AA1CDAE89DB
:1032E8008295B095677497A9846E7C9CB392788B0D
:1032F8008567646067514792B5976553759B6838D1
:103308004B758D6A5E6D98A67D6F8072676959648A
:103318004B63B7C5A28082ABBD806D8AB1AA7E7AA5
:1033280091B6A7706D7E665E5B52665382C3B89194
:10333800899ABDB37984A8C3A58C91ADC7A5777DBB
:103348008970684F494C4285B290625B6784561F0A
:10335800366078554C6693A78D7A959A8A947B79CE
:103368006870B4B986696D8498593D5B7D7E5A5FF3
:103378007794946F6E91806E736C79617FC7C194F6
:103388008995B6B47D86A1BCA48D99B0B9A277758C
:10339800835C4B3F36352C629A7F59617E9875461F
:1033A8005F879E80798EA2AB8C788987696E62561A
:1033B800454A96B5876C7E98B17F637DA5A58180C7
:1033C80097AFAE91859377676E615E4F6CBDCF9E68
:1033D8008CA0BBB87D7086A38D72859EA5977D7FD6
:1033E8008C6F696C66644F77B9AA786D7D93783B6A
:1033F800416872504B637C7E70617E88696D786F1E
:103408005F5690D0B07D7E9EAE855769888D6E6E72
:103418008A9798847681714C585A4C393586BD996B
:103428007592B9D09C7EA0C1B998A6BCBBAF9F9439
:1034380092684B5B5338213282986650708A894A69
:103448004268816E5173929791898E9B806E807BC2
:10345800665070BDC29589ADC0A1606C858F635000
:10346800808B877F7A818160637F7B6C5B92DCCD08
:103478009E9CC4CFAC7389A2A07173A09A857B81EE
:103488007C6A455C785F433682BC9A667B9E9E72F6
:103498004564766D485B828479848E917E647C80F5
:1034A8005C3F3883AB816085AAA37A618C9684607F
:1034B8008AAD9B919B9A8E6D506D6C472C3D85A46F
:1034C800836A95B9AE817D9FA28C7AA8BCA9A1B068
:1034D800AD976F627871452D478D9F7A65889E817B
:1034E8004A455D57443767756468868A826C729B63
:1034F8009373658BD3DDAD9EBEC4A6797C8D846342
:103508006088836C73807A64454E7170554972B9CE
:10351800C29C99C9CFB28896A8A07E80ABA5929D7F
:10352800A99C846166765D32264C8A7D535D8689C6
:1035380063435B73715C6796968EA7ADA191767CA9
:103548008C72463D6D9E8F696B9793715D77838111
:1035580067779F9A8E9E9F8D775868765A3A3E6E07
:10356800A7A08293BDBBA1919EA5977480A59380C7
:103578008D8F826B4C5C70583E4181B1A17E92A2C6
:103588009472576F6C5A435D7B7265737B7E675488
:103598007280715E63A7D9B79BB8C9BF9886979B9D
:1035A8008064879B898692888665536E704F3A47F8
:1035B8008CAF8A6C8FB0A286879AA39581B0C7AA70
:1035C800A8B9AD9E745E766F482F4384966B566F8C
:1035D8007D6B484A596457507D8E7F859CA0916EBB
:1035E8006E8382604467ACB08480A7B7A67D859A55
:1035F800937265888A7574716759393A5953393C99
:103608006BB6C4A0A1D0D9BC95A0B0AE8A7BA4A14A
:1036180085898674603D3E594D333067B0AB7C81F7
:10362800A0A88A586979744D5380806F7986897A01
:1036380061769283645C96D2B7818AACB18C6789D3
:103648009C91707FAAA58A8B928E73546A7E684B70
:10365800458AC19C6F8CACAD8068909F8D6780AFA8
:10366800AA8C9AA9A986667782613E4188B080565D
:1036780076928C5D4367775B3358857969777C846C
:10368800634D73866C5469B8E1B88DAAC9B8847063
:103698008B9A7E5A7F9C84686E6E65422F4A614978
:1036A8002C4CA5CBA281AAD2C79287AAB9916F94B4
:1036B800B79C81878C8E6149677B583B4E9EB57B52
:1036C800516983753C356375574274A090808C9E10
:1036D800A67B7298A083637ED6DD977599B09C5DB2
:1036E80058889C70578BB19782808A925F547782F2
:1036F800563C5DB2C6876595C0AE7579A8C096740C
:10370800A3C59E8482827A4C3C5D6D412D5BA9B82D
:10371800835780AB8E50598493694F81A67F697116
:103728007E7E4F466B79513F68BBD2946C9CC8B67D
:103738007E7EA8BC87638EB0856456657342305A16
:1037480074544562B8CB8E6795BEA9656D9DA986F0
:103758006D9BCCA88586968F60577288664463B542
:10376800B37045658D7C373D7483605387A28E782E
:103778007792996967959C7A6586CDD8906293BD52
:103788009F6A779EB58C72A0B591776D7E84544DF3
:10379800747A614B71C3C5776194B69B636E9FB0B1
:1037A800786499AE8E6C5671764237565B4B3E699B
:1037B800B5AF685D8DB1905A6A99A56E5E8DA08689
:1037C8006352756E484D6A6F6A6094D8C88376A252
:1037D800BD9B6778A4B0827A99A3936C597B724C8D
:1037E800566F746A6196D2B770658FAD87576890C7
:1037F800976E6585988B675B7A72555A6E726763A8
:1038080097BF9B5F5F889F764B628D8F69678E9F9E
:103818008E6A627F7C60677A7D767AB5DBB5839243
:10382800B6C6937491BFB68E92B5B79166617A6742
:103838004D506266575EA5C79A5E6390AA7F607F07
:10384800B4B48A8498A68D5C536D62505763695CE2
:10385800649DAF7D525F83906E5C769789666F89B1
:10386800907A5B667F766A6D6E70677FB9C594786B
:1038780089ACAE837292B09B7B869D9C835B62749D
:10388800655464686C627CBCC38260719A9E685D92
:1038980083AD9E7A7B97977A505D716654595E65C1
:1038A8005A74B3AF785E6F999A6B5D799B8666712F
:1038B800848E7C56687B70656F757F739DDED6A09D
:1038C8008B97C0BA8684AAC2A98B8A9C9E7B4E61BC
:1038D8006F5F535963706C90BDAA79697EA5926B2E
:1038E8006E95AB8F728095906D4A687363554E5391
:1038F80065638DB699726B7BA2895D5F8A997D5FDE
:103908006D858B6B435F6D6962666B8188B7DAB2D0
:10391800877992B2956D77AABC9E787B8E91614625
:103928005F66665D626E757DAEBF97706490AD89A7
:10393800626499AC866676868D5946686E63574F81
:103948005E6673AAB3886B6083A076586A9CA08170
:10395800667E9A94635C767B735E6A7E8BAAC8BC2B
:10396800A08388B1AE8C7C93C5B48C8091A286521A
:10397800607F7B745A5D7482A4B69D786B779B8D4B
:10398800696282A5906D6A89906B4F556569624F2F
:103998005E6D87B6B5957A728291725A5B8094781B
:1039A80065707F805D4D5E6A6E64596C7EA5D0BB84
:1039B800998485A4AA857D8CB5AD8577878F825239
:1039C8004C6A6E735E5A6B83A7BA9B7E707494863A
:1039D80066657FA2957B778C967C525669646045B4
:1039E800455D84AFAB897368788F726372869F8CEC
:1039F800757A9292725A687077755B6B90B8D0B985
:103A0800948C8AA29F848697ADB79D87959B8D6974
:103A18005D6A7077624D6798BDBB90737C808A6ED3
:103A28006174879188787C8F8C785E625F5E634D65
:103A380045699AB9AC756B7D8B8162607A928D7994
:103A48006E848D7D5C56676666574E669CBEC39BCA
:103A5800748194997D7082A6AE9E969EAA97795C91
:103A6800686D6859495783B3B3956D6C7D8A7460E6
:103A78006C8AA39585839C95765459626151364723
:103A880074A5AC976F717E8C7F6C7086968C8580E0
:103A98008D887D57555F68654A487AC1C8AB869658
:103AA800A9B89E8CA2ACAFA5A599A999866B6263AB
:103AB8006764444A79B8BD9E707C98A689758094DD
:103AC8009A81747F9B856D596766624A3A4C75A0E6
:103AD800A58C637594A2806E75959A715C799983AB
:103AE800634D6C7B6D413E6098B2A17F6D838F9B67
:103AF800837B83A9A48C7E93A9A4876D858F814C31
:103B08004268B2B98F5C688A90816D7B93A1827993
:103B180078898178666A73796C4E4971B1A9714068
:103B280059808F6F6681AAA27C7290997D665F78B2
:103B380078654A516A96A69D705C71929D877CA0B3
:103B4800CAB99790B7B99C737894A177586BA2C3F8
:103B5800A47562768382778189A4A394868E897DF1
:103B6800665359686F554D74B8C3984F517D8F6D22
:103B78005B6F9EAB8671829F83604E626B68484A1A
:103B88006898B4A67450607E8A6E647BAEA7807213
:103B98009DAE956865849B7F5467AEDFC8996B7846
:103BA800867E676C758C8F817483938A7566657061
:103BB80076564E6FB4CDAC69617C8F6D4E5A839545
:103BC800745B6D96896E5B727B7A584F6CA1BCAD45
:103BD80085606A82896E626C9AA082688AA29879E6
:103BE800738AA196686A9EDBD5AD7B859CA58D7985
:103BF8007A8D9887777689847D6E757A866F505A24
:103C080090BAB17C4E6D9296776B7F9D886766817E
:103C1800806555617776674C5A7FABB29A6A607057
:103C280087856E718B987D676B887E654D637F880D
:103C3800664E6CAED3C1917591A1A49192A3B09731
:103C4800786A7479705C51677C82614F6FB6D3AEC5
:103C580067587F9D8D687097A88160607877624704
:103C68004F676F6A555277B4C9AC6D627F9A8D679A
:103C78006389A28469667F86755968828779656ACF
:103C880093C6D3BC938591A7A6958D9BB1AA948220
:103C980084887F68677579775E5877A7B9A6807238
:103CA8007882867D7D7D8B928E7E7A77776C626353
:103CB800636354445489A6A17F69748684777881A4
:103CC800888B8984827C73726A62606464565074DB
:103CD800A9B89F767A99A693828EA9B1A192919656
:103CE80085746A6A6C6B665E556497B4A97F6B814C
:103CF8009B8E716D889E8C757285866C5659666729
:103D08005D504D5881A8AB91767794997C6A7793EA
:103D1800947565779088695F728179675D6A8AB200
:103D2800C1AF928694ACA489889BB0A68A889FA4C8
:103D38008967698184725D5A79A2B1A28472778A8F
:103D4800927B67708590807181968A6E5C6C7A6EC2
:103D58004E3A5186A79A7D6772858E7E6C697B8AFA
:103D68008677788988745351636E5C3E3E7BB6B221
:103D78008B6B7BA3B19B898BA1B0A797939FA192D3
:103D88007D757D8273514875ADAB7A5157808F72BE
:103D98005D6D88928279809192877C7D7F7B694F67
:103DA8005680ACA57851608595775F6F8B8C6D597F
:103DB800667E7868667C877D61557AB2C5A982710E
:103DC8008EA59D888AA1B9AD8F8598A591797A909D
:103DD8009A8458558FC8BA7D556A9699766581A395
:103DE8009D79626D888169647B90916A5176ACB3E4
:103DF80084443562806E525D8AA68E6E738D8D6F97
:103E080057637E876B5276B2BF945B49677F766053
:103E180061819E99807B94A994767488988166883C
:103E2800C9D9A55E52849C7D5B6DA4B7936C769BC3
:103E3800966341456266404287C2C28B54658D9144
:103E48006F536798A484646D919171545C776C5337
:103E58006AA0C0A6614B779A84565B91B29A727336
:103E68009DAA8A6E728F876A7CBBDCC2816B96BA08
:103E7800AB80789DBEAC81667E928464505A63594B
:103E88006088A6A4704C6397A4897088B0B48B68C6
:103E9800758B805942474C41558CB2A26346699153
:103EA8008D6D6789A394766D818571616361504FCB
:103EB8007FBAC1986D75979E857785A7AC90747EFB
:103EC80096988171706C6E7BA0B8B0866C728F8E7C
:103ED800735F6A8C947961697786786756546993B9
:103EE800A8A27751546F8272636F929D8A6D79860A
:103EF8008164595B636D8EB2C2A976677B8D7966E2
:103F08006D99A48C6E809BA08476797C84A1CEE484
:103F1800CA8F7E92AC93767799A48D6C6D7B77630C
:103F2800545143456CA2B8A2736E8FA189727D9FCC
:103F3800A08165636B64544F4F485481ADAD866072
:103F48006281856C5F7391977F6F737A7A685C5230
:103F58005370A3BBB690727C929693919BAB9F8D46
:103F68008584827E7467535074A3B4A4806D77806F
:103F7800746B758E9E8F766D747B7C7569576395AF
:103F8800B5AF86595261685E545B7D8E8372666EEA
:103F98007870625B5D85B3C5B59378778689837ED3
:103FA8008DAAA9866B687E8A7A615B78AFD1CCB01E
:103FB800948D9195908D8CA2B0A38A777070695C6E
:103FC80056516D9EB2A3866C70807D7574809B9EE1
:103FD800866E656C644B37344578A5B19E7E6D79E5
:103FE8008682736F87A093756469766C54444960C0
:103FF80090B0AF9174758B938C838AB3C2A6867C7C
:1040080088907B6762678AB1BFAC7F66717C746495
:104018005E78979476677182745B55617390B1BFCF
:10402800AF826265746A5A56708C84675E68716183
:104038004E4C545C7EA9C1B1897684978B7979A25C
:10404800B7A8847B7F8675676B707B99C3D2BA8B60
:104058008495A28A747AA7B9A683808D86634D5504
:104068005965749EBEB784717B978F76708CA394C4
:10407800756A756D59383B3B38457AA5B1886A70C1
:1040880087876B637CA39C816C81887F63666D6284
:10409800546A9DBDA8706071918878769BB2A98B8F
:1040A800858E968D767B73717798B5C59D756C787E
:1040B800806D61688C957F616D7A8270636D6C5ECE
:1040C800689DC6BF7A4950787855446395976F5D67
:1040D8007A8E83625C756D535C99D6D08D66799EB5
:1040E8009D6D5D7CA6A3827493B0A988738B8D8027
:1040F8007394D1EDBB80728FA47C5657869F8663DC
:104108006D8D9A7C56647D705865A7E2CD896A8169
:10411800A0895244688E7A504E70756044435D663B
:10412800483D6CB5D4AA7364869D7B506094B29563
:104138006B6D99A8814E507789684B6AB8DEB77560
:104148006393AA90656B94BAA27877A1AE865B5503
:10415800738672495392CEB27D657B978E61496AA8
:104168009491695F7890774E425C716A4D4260968F
:10417800BAA0716385998766698EAA9E8486A1AA6A
:104188008868667C82714B5183B8C1A98F8A9EAEBC
:10419800A1898DA2B7AD9995AEAE8D6D687878611D
:1041A800404069A3AE896A75929C866B78939A861B
:1041B8007F86988A6B544D5A61502F3B74ABA98007
:1041C8005C6A847C60526781877B839DB1936E674C
:1041D800767D715C4A5B8FBAB2917280A09D7E73C6
:1041E80086A5B09C959DA68C6C5D6C7D70514766CC
:1041F800A2B898786F8796846C7A95A49E85839EDA
:104208009A70514C5E684D28255A9A9D75575C8561
:104218008970677B9798838199AA9B766979928C34
:10422800765D5E96C2AE8568729A947A7A8EA1A9F6
:104238009997B7BB9A7C7485968468556BA6BDA27E
:10424800807187A08F726E85978D75798D8F70526A
:1042580057757A62423869A09D7960688A86615983
:1042680070868A7668839682675D6B7D7760495A27
:104278009CBEA7816F89A082606887978A7381A78F
:10428800AD917A82999B80625E93C4B68C6D738E71
:104298008561576D858C787396A591756A7C8C724B
:1042A8004D3F68A6AB855F5F7E805B49576F77653A
:1042B8005C778E826C6477877A5F4F6DB4D0B187F4
:1042C8007A97A786666D8D9F8E758BB6B28D72793B
:1042D8009A986E5063ACDEC38F7D98B19367648201
:1042E80098907783AFB2876666898F653C4389C5A6
:1042F800AC71586A8F7242385D797D646A95A0798D
:104308005352647B5E3A3678B8C797757BA7A87610
:104318005A6A8D8B75638DA69055495F887F56497B
:1043280082D1DEB4878CAFBE8D6A7195977F6C861B
:10433800A99F6C4C58787D573960ADC49A70709AB3
:10434800AA7C535379876B4D668D986A464B728267
:104358005F394C9ABDA0615C84A78D65638DA89771
:10436800717DA7AD8C68678A9A764F60AAD2BA87A2
:104378007CA1C4A78584A6B0956E789BA27C5A5E62
:104388007B8D6D505FA7CBB1776C87AB8F636592E0
:10439800AD8A535C929C6F383A627A4F22368FBB53
:1043A8009651416E9F86585383B3AB7B6E99B39DEC
:1043B8006552678C7948438EC9B76C46629998668E
:1043C8005B8EC3C39788B3C1A16857708C71454091
:1043D8008AC9C1825A6EA4A5786280B7B6805C8506
:1043E800AA944824396C652F1F6AB9B87547609636
:1043F8009A695070A6A9826386B4AD734A4C7A84D0
:104408005F416DBDD69E5D5B99BB8F636BABCBA5E2
:10441800738EC3CF966B759B9A6F517BC4D0985C93
:104428005A82A283666B9AAE996A709EB28954507A
:104438007B9A67293B98C39A3F2E6CAA8C4E427F81
:10444800AA8C463E7B9B85504A6E9A80544687C10B
:10445800BD7B546AA3AC7C5970ADAE7B4E73A8B2D9
:10446800795D71A49A6A5392D0C6845564909E78F7
:1044780068749DA18F6E85A2AA866F708F966D4C09
:1044880061A7BD8B342B5C8F70403977A18752565A
:1044980091A9874643709E824E4189CBCA905D6739
:1044A8009DB58D6D76AEBD956279A5AC754B548A78
:1044B8009E693E5EBEE3BF7C7D9CB99D807AA2C1A9
:1044C800B0847397A999614D54786E4C2C62AABC3C
:1044D80082424C89A26B4A5798AB895875A4AB7A2B
:1044E8004E5276895D3A438FC1B4715169A2A5686D
:1044F8004367ACB282537DB2AC68435B90995C323F
:104508005CBDE4C784708FBDB5846075A8AE835E5A
:104518007BA6AC71474E808D5A284BB1D6A65A4D12
:1045280078A88F62516C95977360829E99664B54F8
:104538007D875B2D3D95CDAD644E75A99A6B6A87D5
:10454800A6A48E82A1B6A8867379888D6C525B97D3
:10455800C7C084657AA7B08D8197AEA18D869AACC5
:10456800A07E727B7E80705B53719FB4996A5C7782
:104578009682615B77887B6660758880655E636F0D
:1045880071624A4B80ADB68D616599AB8B676D934F
:10459800967B637296A07A5B607683735648649EB6
:1045A800B9AD87738BAEA2847790AB9B7C7391ACCB
:1045B800A47B6A74877F664D446096AD9D71596F80
:1045C8008D85645267817B6E7288998C6F6D798452
:1045D80074635554668EA2A181666D89886E647A6B
:1045E800949E988B929B9D95887B7B797F77646C52
:1045F800A1C8C1917183ACA982748FAEAF9076883F
:104608009F987C6E73847E705B506294AE9F7D6BC6
:10461800778B876B6D7F887F695D73847C6E5F6342
:104628006A645F59505783AAA7846C728E93797114
:1046380077858F8A7B838F958B776D6D706D6252CE
:104648005889BBB79170729AA88E7B788B9D958399
:104658008A99A2967E70737D786A53517EA99F7A53
:104668005A5C7C7F654F506E8E8972717F8E877021
:10467800636D77766C5C5D88B0A78A7474888C7873
:104688006C708DA499808193A08E746F838D8376CE
:10469800676A93B7BAAD958999A8A08E8195ABA0A2
:1046A8007F7581968D74646E7B7769525177A3AA62
:1046B800936E5D738D856555718F8765617B948376
:1046C80064556A776D5A47507BA2A28B69657D96BF
:1046D80085605A829F91737A9DAB9073728B8872B2
:1046E800616174899EA49A80768099896962829EA4
:1046F800A0878298A0927F77807C7068656D788E9D
:104708009F916C5D63806D49446E908B6C67849358
:1047180085686169726C66666D7E9DADA082727EE9
:104728009A896F7396AEA588889C9A836B6E787BFE
:10473800716F75808FACBAAA94889AAA8E7886A76A
:10474800B6A3868897947D6B6E76786C6260637882
:1047580096947966617A7F5E4F6888927962768DE1
:104768008A71656D7B7D726A6A6E839B947E6E6AC0
:104778007F786060778F95837E8F938A7A81888926
:104788007C7573707898B3A98C767E938671768BD6
:104798009A97818292958B7C797A7B6F665E627B31
:1047A8009B97786064848B65516488927A6478906A
:1047B8008B6C59606E7161534E6D9FB29C7D739185
:1047C800A68D6C7696AE9F848CABAD927471848006
:1047D800735F5873A7C0B58F7789A8AA847284A716
:1047E800A88F839BAF9F79667A827C6B5B679AB34D
:1047F800A5825D5B778069524D687D7259648490AB
:104808007858556F7F7158558CBFBC8F65648B9EE7
:1048180083675C768F8A6E73909E8560596E826915
:104828004E5490C1B8897281A1A887798398A197BD
:104838008793A8A4886765758469465195B8A26A64
:104848004C6589805B5772958D776B859083605135
:104858005D777E614155A1BE9C5B4D75A6936965E8
:1048680091BAA7766F9BAE99685F799A8E675684DE
:10487800BDCBA06B729CBA98787DB0C4A66F78A6A1
:10488800B3834A4F7A99734E60B3D4B8786681A6D9
:1048980095685D7AA297715E7C8C7D41273A676541
:1048A8003F387ABFBB784868969767597AAFAF8B1D
:1048B800728DA796634A5C7C8563517ABBC696580D
:1048C8005281A481576097B49A6E7AAAB88D5860BD
:1048D8008E9F6F4F73C3D8A362669BB28B5C598857
:1048E800A4825156839E7D463B59795B314293BEE3
:1048F8009F534782B49655508DBA9D6866A1C49E51
:1049080062547A9169415CACD1AB635383B29A6BC0
:10491800608FC5B98178A7C9AE705F87A9895B67C1
:10492800B4DEAE59497DAD935D5B96BFA4726B91C1
:10493800AB894D41687F6641559BB9924B3562966C
:1049480085574980AE9F655887A780443A65876236
:104958003E61B5D9A3535495BE976265A0C1A26CB8
:1049680072A0B08A4D406B89664260B5E0B1615073
:104978008EC09D595195CCAF6C6CA7C797514575A2
:104988008A61395BAAC5904B467D966D3F41749606
:104998007D4E5684A18252446D8C6A436BC0E3B04D
:1049A8005C5C9FC9A05F599CC6A164649DB98F5186
:1049B8004C7A936F4860B6E8BF6E5D94D2BE7F6A4A
:1049C80095C3B87C618EB9A5674F709D83434197A5
:1049D800CFB15D35609B8D5A4871A2905D4D799A33
:1049E800915A495C82794A3771BCC38042568FA577
:1049F8006F475FA1B2854E71B3BF844F5D8B9C67D3
:104A08003653ADCDAD6C5784B0976A6185B9B1881E
:104A18007698B7AA674A62867D46326CC0C89363A7
:104A28006F97A37756658EA5937578928E71493FD7
:104A38004E5F5535285EA3B48D5E668C9879667690
:104A4800A2B39F8996B4AD87686F7E8979605176E5
:104A5800B1C6AD7D6C89A2886D7297B1A18590B100
:104A6800B993696D88928263546FA4C4B9957172C1
:104A7800929271636F89907363778E85553A4F6709
:104A8800614D3A48769CA1937E6B778D8978707AD0
:104A9800949C888291998A625263726757475685B7
:104AA800A6AB9D826F869B957C778BAAA5867C9307
:104AB800AC9C6E5F79897C604B5D8EACAA9B877DD0
:104AC8009099887272859D93716D828E73483B555B
:104AD8005D4D3C3E5275909CA19074738B8D827491
:104AE8007C99A28B808EA09A7B6777837C746A6698
:104AF8007499B7BB9A7476A0A58B6F7CA4AE8771A6
:104B08008AACA976596E8F8C7C6A7586A9C3C2A2B5
:104B1800857B908E6E5D6C8D8D6F5F7B8C753E3264
:104B2800516D55434A62636A87A9AC8B6E7B989531
:104B38007E6F869590777E8C90776E737E716769AD
:104B480067555685B0AF7E66789F97766895B3A807
:104B58008484A3AC896B6F7E80707075736F93B912
:104B6800BD95736B828566536D85806B65797E69AB
:104B7800575B606259656D615576AABE9B777495DF
:104B8800A27E637B999A84748D9F907973788682CC
:104B98007E7D766E8BB6C09E80788F9C7F718BA849
:104BA800AA998C9C9D8875787E8273757E796D7EB6
:104BB800AFC5A8816E7B8E7259687F8274646E75EA
:104BC8006A626362655B5D655C4E6697AB8E6C621C
:104BD8007E957D6B7F99A196858D93897A716D718C
:104BE8006B7174655770A2B28F6C6788997C698005
:104BF8009CA4948492988B7F7D7E83787C7B6D6265
:104C08007EB3C4A07A6C85936F505A768371575ED1
:104C18006B695E54586869706A5F6891BBBB8F7432
:104C28007A9293736B8AA4A6968E9D9B85737076F1
:104C380076696B68667299BCB7957F859E997E8305
:104C48009AA9A6948F99908580808079747B7568DD
:104C580079A4BAA27A66758B795D627885816F6F5F
:104C6800796D5B56555C5E61625D638BB0AF8C6B32
:104C78006C858B6B5D7797998B8097A0886C677034
:104C8800776A5D59607FA3AD9C80768D9F91757919
:104C980095A59484889D906A52677F806F646D871C
:104CA800ACBBB59F857987846E5A647B84736675BF
:104CB800846E4940596B654D405889ADAB98837AED
:104CC8008694887A75889E9E8C91A7AA8C6B6C8333
:104CD8008C7A5A5275A8BBA78E7C7F918F7C757E83
:104CE8009EB1A2919AAAA8825E647E8870505C9B4D
:104CF800D1CCA387828D8E6C555A6F7F7760627F87
:104D08008D784B3B506B684B3865ACC2A27B6F7C8F
:104D18008777636D869B9C8B8192A39A775455689D
:104D28007364484F8FC2BB90727C91937D74859752
:104D38009990878B9E9E8D705C5F6F776A5A6CA581
:104D4800C4B7907A859A92776B727E7D70636D7A1C
:104D58007A644944586D694E457CBAC195696B8C33
:104D6800987A5F6A8D9D918186A7B6A6806B7589B2
:104D78008A6F515A9AC3B58A7384A3A38170849F9A
:104D88009F8D7B87A4A690716B7B8F8767516FB2CD
:104D9800D0B98A798CA4926B5C7185816B5E6E84C4
:104DA8007C624A475861563F3F6AAABB9F77738621
:104DB800988265637F908F7F7792A69F82696677D6
:104DC80076684E4B70A8B79C777189A395766F86E5
:104DD8009D9E8A7992A7A2795756747F775B5983EB
:104DE800BFD1B28C7F8A927D5750647D84766A7D6C
:104DF80089825C444C676B654F526D98B5A88B7778
:104E0800777E846C677394A09E8B919BA08B797737
:104E1800828B8479696C7EA9B4A8857C7D938D7E0C
:104E28007E98ADAC947A858B907A746B807A837116
:104E38006E779DC6C6A37A74789374635979807B1C
:104E480056556A7C75564F597D726A4D5C678A99CA
:104E58009A857F7C7E907D7977918C8F767D849002
:104E6800867B74778271756163627EA2BD9F846F51
:104E7800789889786E838D977F7A8697978F807CCC
:104E8800897C7F766E727F9FB697705D5C76714D78
:104E9800415C7C7F6D5C73919886756D7B7D6E69D6
:104EA8005760677FA5B0978D797D8F86818B9D9C94
:104EB800998685989E9084787E8D80807A757A7898
:104EC8009CCABA8C74638C9C80677B919D8F75801B
:104ED800A1A7968A7C8D887A6C6E6A6D526C9496BE
:104EE8007A614860775F4C5673818C7385969C8293
:104EF800786376797063616065617BB8C3A97D6703
:104F080078A4866860849BA275718CA19A8B727153
:104F18007D726C676E6F6E6593A6A48C7E6F979A90
:104F2800867F8998AA9D83948D826E6658685752A9
:104F380051655E563A589DB08A635673AB8B706D57
:104F4800929995647599A88B79738490716E759010
:104F5800857A5691C3C48E766D9DB27A5E6DA1AF87
:104F6800AB7797B0B487766D877F5C5A7297866DFA
:104F78004D9CDBDC906A5FA2B0714D5C8A8F773CF8
:104F880063858E5B4D49797F5C546A918E70397167
:104F9800B1C484604E8DAE7B515C8EA293546C93E9
:104FA800AB877E7C9FA2775F688A88734771B3C896
:104FB8008B69608DB3835156859A936270A1BF9EA9
:104FC8007D70839C806E729396793F4690BC8F5516
:104FD8003F569379433F6D929A6F5B84A2967670A1
:104FE800778E74595B799488635593D0C88E7173A2
:104FF800AAAE785C7297A58E6C8FB3AE86797B99D2
:10500800916F6B7D958C72547CBBC5957D6C8AA81D
:1050180086697393A09D7A83A0A17D6B6975714A97
:10502800445772694F345296AD86717589A67F5878
:10503800638691886C6E909A7E67728292766671AA
:105048008A8A70535CA2CCAD79686D9D95665D7B4C
:10505800959F8C7892A3977B7C7F8A715E688798EE
:1050680087695A89BCB5846E678C90644D65808C5D
:105078008266758A7E5D5F6476705A5F7A8B785E29
:105088004C73B5BF8A6F6484A582637596A7A280A6
:1050980084A5AB8F85828C8E6F687A928E7A5E71CA
:1050A800AFC9A88D7D8BA8846268828F96858BA5F1
:1050B800A78D878E9193756B77887E67485795ADD6
:1050C80082584B587C5D3C4B7D9796746F94A58AAB
:1050D8006F70788A7263698081734F5EA3C29B691F
:1050E800586FA7926860839CA17C6D889D8D7876A7
:1050F8007A897368719195875E6AA7C5A67D697B71
:10510800A387625C80979E7C7C939F866D61666FA7
:105118005A545A6A61564679AEB485645A7D8F6F7F
:105128005E7296A295768DA2A27F77789283635D50
:105138007E968D6C69ADD2B77D6976AA9D6F658EB6
:10514800ABAF88779BB6A37C646D8A816C6A7E89D5
:1051580082739BC7C3936C5F889773596C8C9580D7
:105168005D667B7C66575565655455667779718AA7
:10517800B1B393725F75897862768D93857381A0D8
:10518800A28D7B737E7D6F666765666D98BAB08702
:105198006D6E8A90746274939F98848FA4A58F7E95
:1051A8007179796864656B6E7CA1B9A587695F6C54
:1051B8006252536E7B786F6A7A8A7F6C6968726E06
:1051C8006E70727981A2C5BC967A6B8088756B7A8D
:1051D80093998F7F8C9D977F7877878A7F82838D3D
:1051E8008A97B5C5AD9D838595887D809599928070
:1051F800838E9884746E737A716B58576585A2ACE8
:10520800846D666B7261555E7D8683787F8896852E
:105218007971655F565E64666685A3B08C6D5D6A5C
:1052280076675B6C8E9D977F8C9DA28471697E8763
:105238007C6C6C82A1BEC1BA9D8D7F82776E677AC5
:105248009096837276808B78675C67686B57546A30
:105258009EC1B6896B6B74785E545F7B81817A8757
:1052680090917B6E6B6864605B5C6D8CB3BAA37C59
:10527800727C8571626D96B2AB9393AAB59E7A7370
:10528800829088736A84AAC9C6A9887A7C7F767056
:105298007A91A09A8A868E8D7A64606B7470605A4F
:1052A8006C8FA2957766677472605B698088857F6A
:1052B800878B846E61656F6F6A5B526991AFA78750
:1052C8006A6C7A7B696474929D91888C97988775CB
:1052D8007372777B757591BACDBF957779867F6D37
:1052E8006D80989383818F8B7553546F7A725C4F5E
:1052F800628FA4A0846F6C7771645F6D838D7F78F3
:105308008590927D686975716C5854739FB5AC8CA3
:1053180074747F81746F7084949CA3A8A5A19187ED
:105328008781858272799CC4D3BF9A85817F716E8B
:10533800757F8C8C8F97928072686F6F69665E5BE1
:105348006D90A8A2826D707C725D59657B81777CB7
:105358008B92876E606A6D6E664F4B6A98B3AC8AA3
:1053680075767C706466768C8B858C979A917E7A3C
:105378007C7B7D756C7494BCCBB38C7B879283717A
:105388006B7F96928680817F715F657178755E4EBE
:10539800587DA2AA8B706B74766A636D807A6B6C89
:1053A800839D997766707F806C54577299AEA790E9
:1053B8007F8083796665779499908D98A4A0897980
:1053C800838B908B7B7591B7D0C79E82869695818B
:1053D8006E7A9196857A7E8E8A705D626E786E514D
:1053E8004A5E8BA7A0817479857D695A64777A763D
:1053F8007E8B8F866F696F6F635547567697A99E28
:10540800877D79756D65677C8B8A89919BA292757A
:105418006E79828679697090B4BFAC939194917AD1
:105428006A6C858D867B7A828981726E6F706C60FA
:105438004D516D92A2977C7A7E7C6B5B5C6B73722C
:105448007D8B98968A79756E6668665D637A9CB777
:10545800AA918A877A6A5E6C868F8D95A6ADA99087
:1054680082848985857A778099BECFBA988C8F9601
:1054780085727087908C807E868B7A6864686C6988
:105488005D565F748C958C7D7B79726861667477E4
:105498007A83878B85766D6F726F69574B5B81A1B5
:1054A800A187757E8576605F72847E78869DA89CCC
:1054B8008A868B80706E757B879AACBAAE9A8C8917
:1054C800837D726F74778089979C8F745F5B5F634D
:1054D8005F4D49648DA2987F7B8988705F61717A7E
:1054E800787B8D9F9B836D6E7470625958677A8C38
:1054F80096979290918D8681838483828C98A6A1B9
:10550800948D8C8983807871728AABBCB5A8A2A26D
:105518009C8F8789897F706E809694806F6C6D668A
:105528005B4D4B5974888F8C8B89867A6C6E75723B
:1055380067606A8C9A89746E73756C5D5659627A65
:1055480090948E89878A877E776F696B74859B9D17
:10555800928C8A857C7774766F7492ACB2AFA39E76
:10556800A59B89786B6A7470738286837E756A647A
:105578005E5956505972858C8A858E978C766A6DDD
:1055880076776D71828C8A807573726C65636071D1
:10559800858A8A8E96A2A38A7D84918D7F75889E3E
:1055A8009F8E80858E8F8585818798A19FA3A8A6C9
:1055B800A1979192948980787C7F7B716A686763F0
:1055C8006366667076757B81817F7671787F7D7979
:1055D80073797E7E766D707473727675787065698E
:1055E80079868676636A7E85837D828E8D827C84C9
:1055F8008E9188838992908B84858C8F8D86818209
:1056080084848383898B8B847D7E7C777A80828275
:105618007B71717773706D66686A696D747578757A
:105628006E7278787A7B797E81808285898E8B8884
:10563800817A797E8081828384868481807F80825A
:105648008487909696929297A2A59990939EA49FEC
:10565800939398988D80787D7F7A75767C817E7912
:1056680077777A7368646A7276706B71767775711A
:1056780074797573767C7F8080838684786D6C7589
:1056880079766F6D71737170767F817B7778848C92
:105698008B8A8D9299998B83838990918A8C91902A
:1056A8008F8D8A8A857C7F8488847A767F848175C9
:1056B8006A6D7375726C686D7172737778746C6CDF
:1056C8007782837A777F898A7A6E77868A7F727201
:1056D8007E847C7378868D877C7C87908B83838E91
:1056E8009891817D8EA0A59992949896908F979E77
:1056F800978D8B9397968A868B8E826F68717B7D48
:1057080078777E7B7165666E72686166757C797480
:1057180078868A806E68707B7E79777E827C7472E8
:10572800777A726967717B7F7C7C848F92867B7BBA
:10573800828580787F8B8F86808794958C899096D8
:10574800948B88919994847E858E88786D737C7902
:105758006960687675635B65787D7168768988723B
:1057680065748E927E6B738689776B75888B79707A
:10577800798A8B7E71798A9081747B8E9A948686D9
:1057880091968C7D7D8D958F8B96A5A79D949CA7D2
:10579800A38D7F86989B8F82868F8C7C6E717D7E91
:1057A8006E63697D83786768777E6D595A6F8080EC
:1057B8007472838C83716E7882776D6F7D87877D35
:1057C8007C858C81726D7786877D79848E8E7D74D9
:1057D8007984807572808D8C817F8A948D7A7786A2
:1057E8009491857E8B9491827C8085786763717CA7
:1057F8007A706D7A867E675F6C7E7C6D606975767F
:1058080068637083806F697687887E7C8C9B9884B8
:105818007B83979B90858D999A8C828A9B9E8D7E9F
:10582800818F9286777C8D9584777D9299918285F8
:105838009397897C808F9B92878891908A7D7E84BC
:1058480084756766737F786860696F6B5C57606E94
:105858006C6464738180757280908E7C78859A9E62
:10586800907F818A8C807377858B837E8494978CD4
:1058780078778084725E60778A887F80939D988627
:10588800838A958E7F7B879292877E8186827067D6
:105898006873756F656B7473676169767566606840
:1058A8007B7F7870778285787076858D8B888991F3
:1058B800928D83838A928C838189908F8B8D989E19
:1058C80097847B829091887F858F90888083909938
:1058D8009288838B94938B858A938F7C6D71818852
:1058E8007E71727E83796A686F746B6060676D6EB3
:1058F8006B6C78838072686979837D71717D868528
:105908007F818D928B8482898C8984848D989584FB
:105918007A7C8488807371777B7771757F898680BC
:1059280081898E8B8686939C9C8C7B788085837AF4
:10593800737679756C696D716E6561666D6B66609D
:1059480067747B746869758084817E8792948C8380
:10595800858F938A81838E94928A85909A9A8B8078
:10596800838D8F887C7A848B8C89888D918B8689AE
:105978008F918F8D8C919799958C88878684817863
:1059880072707174716966686B6D6A666971747139
:105998006F737B7B716A6E79807F78787D7F7D7984
:1059A8007981857F7A7C83878582838990939086A5
:1059B8008384858685807C7C7C7C797A80878787D0
:1059C80088898A88848182838889817A797E868792
:1059D8007E7A7A7A756D676A70716F6C6B6E706DAE
:1059E80069676A747B736966707F847C7A828A8C43
:1059F8008581879294918D8E908F8C8A8B91989ABD
:105A0800948C898B8F8D8682858988807C828B8D0A
:105A18008B8B8F9395908A898E999D90807D858CAC
:105A2800877871767C7769616569645C5A62686AAF
:105A380065676F767C7C777172767D7D7A787F86F4
:105A4800878382878C8A84818385837F7F82868A05
:105A5800897F7674798385817F868E8D8481888E0F
:105A68008A8281888D898282888F8E877E777577F2
:105A78007A7978767776716B6A6B6D6B67686A6925
:105A880067676B727678797874757B838886828489
:105A98008785818185898B8B8C90918F8D8D919550
:105AA80095938C8281889396938E95999288838713
:105AB8008E8B828289908F88858C94948D86818143
:105AC80082807E7D7C7B746E6A68646363666B6CBF
