:020000040800F2
:100000000050002021020008270200082B020008EF
:100010009D020008A1020008E9020008000000009B
:100020000000000000000000000000003103000894
:10003000350300080000000039030008A909000882
:100040004D0300084D0300084D0300084D03000850
:100050004D0300084D0300084D0300084D03000840
:100060004D0300084D0300084D0300084D03000830
:100070004D0300084D0300084D0300084D03000820
:100080004D0300084D0300084D0300084D03000810
:100090004D0300084D0300084D0300084D03000800
:1000A0004D0300084D0300084D0300084D030008F0
:1000B0004D0300084D0300084D0300084D030008E0
:1000C0004D0300084D0300084D0300084D030008D0
:1000D0004D0300084D0300084D0300084D030008C0
:1000E0004D0300084D0300084D0300080000000008
:1000F0000000000000000000000000000000000000
:1001000000000000000000005FF808F100B583B0B7
:1001100000F0AAF9304B314A1360314A1360314B79
:10012000314A32498B4204D21168196004330432D7
:10013000F7E72A4B1A682E4B9A4200D0FEE7284B6D
:100140001A682C4B9A42F9D1234B2B4A13602B4A45
:1001500013602B4B02E000221A600433294A9342B9
:10016000F9D3254B1B6813B9244B1B6803B1FEE779
:1001700000F086F9694601A800F022F9224C234BD1
:10018000E41AA4100025AC4214DC214C214BE41AE3
:10019000A4100025AC4213DC0099019800F0B4FCD7
:1001A00005461D4C1D4BE41AA410002C0EDC2846FD
:1001B00000F0E2F8154B53F8253098470135E2E797
:1001C000144B53F8253098470135E3E7013C134BB6
:1001D00053F824309847E8E7BABADECA0000002096
:1001E00084000020000000203CB5000888000020AA
:1001F0007856341232547698880000202801002066
:10020000880000202C0100207803000878030008F3
:1002100078030008780300087803000878030008D2
:1002200008B5FFF773FF00BEFEE71EF0040F0CBF1A
:10023000EFF30880EFF309807146414A10472DE93A
:10024000F04182B004468846124B5E6B9F6B9D6AFC
:100250001B6B13F0020F03D00E4BDB6A002B0CDB81
:100260000D4800F0B5F8CDF800803B4632462946EF
:10027000204600F009F900BEFEE74BF6AB6100F046
:100280007DF90028ECD0034B4FF00042DA6202B057
:10029000BDE8F08100ED00E0DC14000800BEFEE7E0
:1002A0001EF0040F0CBFEFF30880EFF309807146D6
:1002B000244A10472DE9F04182B004468846084B95
:1002C0005E6B9F6B9D6A074800F082F8CDF8008056
:1002D0003B4632462946204600F0D6F800BEFEE7EF
:1002E00000ED00E0EC1400081EF0040F0CBFEFF36B
:1002F0000880EFF309807146134A10472DE9F04159
:1003000082B004468846084B5E6B9F6B9D6A074827
:1003100000F05EF8CDF800803B4632462946204684
:1003200000F0B2F800BEFEE700ED00E0F8140008AF
:1003300000BEFEE700BEFEE700BEFEE7704700001D
:100340003F020008B5020008FD02000800BEFEE7FB
:100350003CB5000800000020880000203CB50008E3
:100360000000000000000000880000202C01002098
:08037000000000000000000085
:10037800FEE7000008B503460C4A12685AB10B4A5A
:100388001068033323F003030344094A934206D851
:10039800064A136008BD054A06491160EFE700F0F8
:1003A800DBFB0C2303604FF0FF30F3E78C000020E9
:1003B800004C00202C01002001230360014B0B603E
:1003C800704700BF040000200FB400B583B004AB31
:1003D80053F8042B01938021064800F0EFFB002816
:1003E80003DD0146034800F037F803B05DF804EB7D
:1003F80004B07047940000202DE9F04385B004460E
:100408000F4643560BB10E461EE0042528462146EA
:10041800ABBE0446384605B0BDE8F08314F9011BAD
:1004280004AA1A4402F8101C0133AB42F6D304AAFA
:100438001344002203F8102C4FF00408E946404604
:100448004946ABBE8046761B002EE3D03546102EBB
:1004580028BF10250023E8E708B5FFF7CDFF08BD42
:1004680008B500F0FDF8024A024B9A6008BD00BFCB
:100478000000000800ED00E008B500F019F908BD1B
:10048800F8B504460D4617461E462748FFF79CFF59
:1004980021682648FFF798FF61682548FFF794FF11
:1004A800A1682448FFF790FFE1682348FFF78CFF15
:1004B80021692248FFF788FF61692148FFF784FF17
:1004C800A1692048FFF780FFE1691F48FFF77CFF1B
:1004D8001E48FFF779FF29461D48FFF775FF1D4C99
:1004E800E16A1D48FFF770FF216B1C48FFF76CFF9E
:1004F800E16B1B48FFF768FF15F0800F0AD115F470
:10050800004F0CD11748FFF75FFF06991648FFF711
:100518005BFFF8BD39461548FFF756FFEFE7314650
:100528001348FFF751FFEDE7C0130008D013000888
:10053800E0130008F0130008001400081014000865
:100548002014000830140008401400085014000853
:100558005C14000800ED00E06C1400087C1400082E
:100568008C140008BC140008C41400089C1400086B
:10057800AC14000883691A888A4201D000207047A9
:100588000268033A012A03D80233836101207047C5
:100598000020704782B00023019300932C4A13680F
:1005A80043F4803313602A4B1B6803F40033009331
:1005B800019B01330193009B1BB9019BB3F5A06F0D
:1005C800F1D1234B1B6813F4003F06D0012300939D
:1005D800009B012B04D002B0704700230093F7E77B
:1005E8001C4B1A6842F010021A601A6822F00302C3
:1005F8001A601A6842F002021A60A3F580535A681A
:100608005A605A685A605A6842F480625A605A6856
:1006180022F47C125A605A6842F4E8125A601A6846
:1006280042F080721A600A4B1B6813F0007FFAD000
:10063800074B5A6822F003025A605A6842F00202D5
:100648005A60034B5B6803F00C03082BF9D1C2E72F
:10065800001002400020024008B5FFF79BFF08BDCC
:1006680008B5104B1A6842F001021A6059680E4A20
:100678000A405A601A6822F0847222F480321A60A2
:100688001A6822F480221A605A6822F4FE025A601C
:100698004FF41F029A60FFF7DFFF044B4FF0006230
:1006A8009A6008BD001002400000FFF800ED00E06D
:1006B8001F4B5B6803F00C03042B15D0082B17D0D5
:1006C8001BB11C4B1C4A1A6002E01A4B1A4A1A60EA
:1006D800174B5B68C3F30313184AD35CDAB21549A6
:1006E8000B68D3400B607047124B134A1A60EFE750
:1006F8000F4A53685268C3F38343023312F4803FAE
:100708000AD00B4A526812F4003F0BD00C4A02FB85
:1007180003F3084A1360DBE7094A02FB03F3054ABF
:100728001360D5E7044A02FB03F3024A1360CFE7DC
:10073800001002401C00002000127A000C0000206B
:1007480000093D0010B4012824D018B1022841D076
:1007580010BC7047072910D90F29F9D8A1F108044E
:10076800E4B2A4000F23A3402A48016821EA030346
:1007780002FA04F119430160EAE789000F2303FA3A
:1007880001F0254C236823EA000302FA01F119431A
:100798002160DDE7072910D90F29D9D8A1F1080070
:1007A800C0B280000F2383401C4C216821EA030358
:1007B80002FA00F119432160CAE789000F2303FAFE
:1007C80001F0174C236823EA000302FA01F11943E8
:1007D8002160BDE7072910D90F29B9D8A1F108036D
:1007E800DBB29B000F2098400E4C216821EA0000E4
:1007F80002FA03F101432160AAE789000F2303FAF3
:1008080001F0094C236823EA000302FA01F11943B5
:1008180021609DE70408014000080140040C0140E4
:10082800000C01400410014000100140012818D0BC
:1008380010B1022829D07047012A0AD0002A2FD1E6
:10084800012303FA01F11B4A136823EA0103136029
:100858007047012303FA01F1164A13680B4313602A
:100868007047012A09D0DAB9012303FA01F1124AC3
:10087800136823EA010313607047012303FA01F1A7
:100888000D4A13680B4313607047012A09D03AB91F
:10089800012303FA01F1094A136823EA01031360EB
:1008A8007047012303FA01F1044A13680B431360EC
:1008B800704700BF0C0801400C0C01400C100140AF
:1008C800034B4FF480321A60043301221A607047D8
:1008D800001002401F291CD801280BD010B1022893
:1008E80010D07047012303FA01F10A4A13680B4339
:1008F80013607047012303FA01F1074A13680B4399
:1009080013607047012303FA01F1044A13680B438B
:1009180013607047141002401C1002401810024067
:10092800024B40F247321A60704700BF0030014066
:1009380038B505460C46002211461046FFF776FFEB
:10094800074BDD60064B9B6813F0800FFAD1044B10
:10095800DB682370012200210846FFF767FF38BDD6
:1009680000300140014B00221A60704710E000E09F
:100978000A4B58601A6842F001021A6000E000BF92
:10098800064B1B6813F4803FF9D0044B1A6822F019
:1009980001021A6000225A609A60704710E000E075
:1009A80008B50A4B1B785BB9094B1A6822F002029A
:1009B8001A601A6842F001021A6000225A609A60AE
:1009C800044B1B689847024B1B6808BD18010020A0
:1009D80010E000E01401002030B583B00546002087
:1009E80002AC04F8010D01220221FFF71FFF214686
:1009F8002846FFF79DFF03B030BD30B583B00546EC
:100A0800002002AC04F8010D02460221FFF70EFF98
:100A180021462846FFF78CFF03B030BD08B50122F8
:100A280011460020FFF702FF6420FFF7A1FF002214
:100A380001211046FFF7FAFE0120FFF799FF012276
:100A480011460020FFF7F2FE6420FFF791FF002215
:100A580001211046FFF7EAFE6420FFF789FF012213
:100A680011460020FFF7E2FE0948FFF781FF112039
:100A7800FFF7C3FF0748FFF77BFF3A20FFF7BDFFEB
:100A88000520FFF7A9FF2920FFF7B7FF08BD00BF22
:100A9800C0D40100F049020038B505462A20FFF706
:100AA800ACFF0020FFF798FF0020FFF795FF00201C
:100AB800FFF792FF7F20FFF78FFF2B20FFF79DFFA7
:100AC8000020FFF789FF0020FFF786FF0020FFF7CF
:100AD80083FF9F20FFF780FF2C20FFF78EFF002465
:100AE8000AE035F81400000AFFF776FF15F814003D
:100AF800FFF772FF0134A4B2B4F5A04FF1D338BDAB
:100B080008B5FFF7DDFE02210846FFF7E3FE0C21DA
:100B18000220FFF7DFFE022201210020FFF712FE6C
:100B2800022211460020FFF70DFEE92205210020D0
:100B3800FFF708FEE92207210020FFF703FEFFF771
:100B480011FFFFF7EDFEFFF769FF0248FFF7A4FF6B
:100B5800FBE700BF08150008014B1868704700BF85
:100B68002000002030B5141E05469BB0184605DA53
:100B78008B234FF0FF302B601BB030BD4FF4027356
:100B8800ADF80C300CBF234604F1FF3302930593F4
:100B98004FF6FF7300910491ADF80E3002461E9B8C
:100BA8006946284600F072F8431CBCBF8B232B60B3
:100BB800002CE1D00022009B1A70DDE707B50093F6
:100BC80013460A46014603480068FFF7CBFF03B007
:100BD8005DF804FB200000202DE9F0478E6882466E
:100BE8009E420C469046994637D88A8912F4906FEF
:100BF80031D00223256809696F1A656905EB450537
:100C080095FBF3F509F101033B449D4238BF1D46AE
:100C1800530530D5294600F035FB064650B90C235C
:100C28004FF0FF30CAF80030A38943F04003A38196
:100C3800BDE8F0873A46216900F0B4FAA38923F4A5
:100C4800906343F08003A38126613E4426604E46AC
:100C58006561ED1BA5604E4500D94E4632464146BA
:100C6800206800F0AAFAA36800209B1BA3602368F1
:100C78001E442660DCE72A4600F05EFB0646002894
:100C8800E2D12169504600F0B1FAC8E72DE9F04FEA
:100C98009DB003938B8980461D060C4616460FD5DA
:100CA8000B696BB9402100F0EDFA2060206128B98A
:100CB8000C23C8F800304FF0FF30C7E040236361D1
:100CC8000023099320238DF8293030234FF0010B9E
:100CD8008DF82A3037463D4615F8013B0BB1252BD8
:100CE8003ED1B7EB060A0BD0534632462146404662
:100CF800FFF772FF013000F0A480099B5344099369
:100D08003B78002B00F09D8000234FF0FF32CDE9A7
:100D18000523049307938DF853301A932F46052221
:100D280017F8011B4F4800F02FFA049BD0B9D906D9
:100D380044BF20228DF853201A0744BF2B228DF878
:100D480053202A782A2A15D02F4600200A25079AE8
:100D5800394611F8013B303B092B4DD9B8B10FE0AA
:100D68002F46B8E73F4A3D46801A0BFA00F0184371
:100D78000490D3E7039A111D12680391002A01DB3E
:100D8800079204E0524243F00203079204933B782F
:100D98002E2B0CD17B782A2B33D1039B02371A1DBB
:100DA8001B680392002BB8BF4FF0FF3305932E4DFD
:100DB80003223978284600F0E7F938B14023401B70
:100DC80003FA00F0049B01370343049339780622A1
:100DD80026487E1C8DF8281000F0D6F9002838D057
:100DE800234B13BB039B073323F0070308330393F9
:100DF800099B4B4409936DE705FB023201200F461E
:100E0800A6E700230A25194601370593384610F846
:100E1800012B303A092A03D9002BC8D00591C6E71F
:100E280005FB012101230746F0E703AB00932246A7
:100E3800104B04A94046AFF30080B0F1FF3F814654
:100E4800D6D1A3895B063FF536AF09981DB0BDE83A
:100E5800F08F03AB00932246064B04A9404600F0EE
:100E680081F8EAE708B500080EB5000812B50008D1
:100E780000000000E10B00082DE9F04791461F46ED
:100E88008A680B6906469342B8BF1346C9F8003012
:100E980091F843200C46DDF8208012B10133C9F8DF
:100EA80000302368990642BFD9F800300233C9F8E8
:100EB8000030256815F0060507D104F1190AE36822
:100EC800D9F800209B1AAB4229DC94F843302268F9
:100ED800003318BF012392062ED404F14302394689
:100EE8003046C047013021D02368E56803F0060387
:100EF800042B18BF0025D9F800204FF0000908BFBF
:100F0800AD1AA368226908BF25EAE5759342C4BFF4
:100F18009B1AED181A344D451AD1002008E0012318
:100F2800524639463046C047013003D14FF0FF30B2
:100F3800BDE8F0870135C2E73020E11881F84300A9
:100F48005A1C94F845102244023382F84310C4E72F
:100F58000123224639463046C0470130E6D009F120
:100F68000109D8E72DE9F04301F1430C0C46097E4D
:100F780085B06E291746064698460C9A00F0B3804D
:100F880022D8632936D00AD8002900F0B980582918
:100F980000F0838004F1420584F8421032E06429AD
:100FA80001D06929F6D120681368050603F1040108
:100FB8002AD51B681160002B03DA2D225B4284F8C6
:100FC80043206F480A2239E0732900F09D8008D831
:100FD8006F2920D07029DDD1236843F020032360D6
:100FE80003E0752917D07829D4D17823654884F887
:100FF800453055E0136804F14205191D1B6811605E
:1010080084F8423001238CE01B6810F0400F116017
:1010180018BF1BB2CFE713682568181D1060280693
:1010280001D51B6802E06806FBD51B886F2914BF31
:101038000A2208225248002184F843106568002DCE
:10104800A560C0F29580216821F004012160002B81
:101058003DD1002D40F08E806546082A0BD12368CB
:10106800DB0708D5236962689A42DEBF302305F89A
:10107800013C05F1FF35ACEB05032361CDF8008099
:101088003B4603AA21463046FFF7F6FE01304DD114
:101098004FF0FF3005B0BDE8F083394884F84510BB
:1010A800136821681D1D1B6815600A060BD5CA0741
:1010B80044BF41F0200121601BB9226822F02002C0
:1010C80022601022B7E74D0648BF9BB2EFE765469E
:1010D800B3FBF2F102FB1133C35C05F8013D0B468B
:1010E8000029F5D1B9E713682568181D61691060F2
:1010F80028061B6801D5196002E06A06FBD519802D
:10110800002365462361B9E71368191D11601D683E
:1011180062680021284600F037F808B1401B60607B
:1011280063682361002384F84330A7E723692A46CC
:1011380039463046C0470130AAD023689B0713D4EC
:10114800E068039B9842B8BF1846A3E701234A46C4
:1011580039463046C04701309AD00135E368039AD2
:101168009B1AAB42F2DCEBE7002504F11909F5E71D
:10117800002BACD1037804F1420584F842306CE7C7
:1011880019B500082AB5000810B5C9B20244904242
:10119800034601D1002303E01C7801308C42F6D1CC
:1011A800184610BD10B5431E0A44914200D110BD27
:1011B80011F8014B03F8014FF7E7884210B501EB2E
:1011C800020307D8421E99420AD011F8014B02F8CF
:1011D800014FF8E78342F5D98118D21AD34200D1DA
:1011E80010BD13F8014D01F8014DF7E738B5054674
:1011F800002943D051F8043C0C1F002BB8BFE41859
:1012080000F0D0F81E4A1368104633B963601460C2
:101218002846BDE8384000F0C6B8A3420BD921687B
:101228006218934201BF1A685B68521822606360B3
:101238000460EDE713465A680AB1A242FAD9196860
:101248005818A0420BD120680144581882421960EE
:10125800DED110685268014419605A60D8E702D993
:101268000C232B60D4E7206821188A4201BF11683B
:1012780052680918216062605C60C9E738BD00BF28
:101288001C01002070B5CD1C25F0030508350C2D78
:1012980038BF0C25002D064601DBA94203D90C23D3
:1012A8003360002070BD00F07DF8214A14682146A3
:1012B80091B9204C23681BB9304600F063F82060D0
:1012C8002946304600F05EF8431C24D10C233046F2
:1012D800336000F068F8E4E70B685B1B18D40B2B4D
:1012E8000FD90B60CC18CD50304600F05CF804F1F3
:1012F8000B00231D20F00700C31AD3D05A42E25036
:10130800D0E74B688C4216BF636013600C46EBE76E
:101318000C464968CCE7C41C24F00304A04205D05D
:10132800211A304600F02EF80130CFD02560DBE7D7
:101338001C01002020010020F8B5074614460E467F
:1013480021B9BDE8F8401146FFF79CBF22B9FFF765
:101358004DFF25462846F8BD00F026F8A0420FD2DA
:1013680021463846FFF78EFF05460028F2D0314661
:101378002246FFF717FF31463846FFF737FFE9E700
:101388003546E7E738B50023054C0546084623608F
:10139800FEF7F0FF431C02D1236803B12B6038BD70
:1013A800240100207047704751F8043C181F002B97
:1013B800BCBF0B58C0187047537461636B206672CA
:1013C800616D653A0A000000205230203D2020253A
:1013D8003038580A00000000205231203D202025D6
:1013E8003038580A00000000205232203D202025C5
:1013F8003038580A00000000205233203D202025B4
:101408003038580A0000000020523132203D202593
:101418003038580A00000000204C52203D2020257A
:101428003038580A00000000205043203D20202575
:101438003038580A0000000020505352203D202523
:101448003038580A000000004653522F4641523A9D
:101458000A0000002043465352203D202025303802
:10146800580A00002048465352203D202025303895
:10147800580A00002044465352203D202025303889
:10148800580A00002041465352203D20202530387C
:10149800580A0000204D4D464152203D2025303845
:1014A800580A00002042464152203D20202530386D
:1014B800580A00004D6973630A000000204C522F3F
:1014C8004558435F52455455524E3D2025303858B3
:1014D8000A0000005B486172644661756C745D0ABD
:1014E800000000005B4275734661756C745D0A000C
:1014F8005B55736167654661756C745D0A00000031
:1015080045D925D125D125D125D125D125D125D1FB
:1015180025D125D125D125D125D125D125D125D113
:1015280045D145D145D125D124D924D925D925D985
:1015380025D126D126D906D9E5D006E126E9E6E067
:1015480045D145D145D145D145D145D145D145D1E3
:1015580045D145D145D145D145D145D145D145D1D3
:1015680026D926D926D926D925D925D925D125D18F
:1015780025D125D925D925D925D925D925D925D97B
:1015880024D924D944D924D924D924D924D924D94B
:1015980025D925D925D925D905D905D905E105E1C3
:1015A80045D145D145D145D125D125D125D925D9F3
:1015B80025D925D925D926D926D926D926D926D92E
:1015C80025D925D925D924D924D925D925D945D10D
:1015D80045D145D145C945D145D144D124D924D98E
:1015E80025D125D125D125D125D125D925D925D133
:1015F80025D124D145D124D145D145D145D1A6D92C
:1016080025D125D125D125D125D125D125D125D122
:1016180025D125D125D125D125D125D125D125D112
:1016280025D925D925D925D924D924D924D925D1CD
:1016380045D125D145D166D166D965D124C924D1F2
:1016480045D145D145D145D145D145D145D145D1E2
:1016580045D145D145D145D145D145D145D145D1D2
:1016680045C945C945C945C945C945C945C945C902
:1016780045D145D145D145D145D144D144D144D1B5
:1016880045D145D145D145D145D145D145D145D1A2
:1016980045D145D145D145D145D145D145D145D192
:1016A80045D145D145D145D145D145D145D145D182
:1016B80045D145D145D145D145D145D145D145D172
:1016C80045D125D124D124D145D965D945D904C9D5
:1016D80045D145D145D125D125D125D924D904D9FC
:1016E80025D125D125D125D125D125D925D925D132
:1016F80025D124D145D124D145D145D145D1A6D92B
:1017080025D125D125D125D125D125D125D125D121
:1017180025D125D125D125D125D125D125D125D111
:1017280006E105E105D905D924D924D124D124D14C
:1017380044D124D124C903C944C964C943C1A5C932
:1017480025D125D125D125D125D125D125D125D1E1
:1017580045D145D145D145D145D145D145D145D1D1
:1017680044D144D144D144D164C964C944D144D199
:1017780044D144D144D144D144D144D144D124D1D9
:1017880045D145D145D145D145D145D145D145D1A1
:1017980045D145D145D145D145D145D145D145D191
:1017A80044D144D144D144D144D144D144D144D189
:1017B80044D144D144C944C944C944C945C945C9A7
:1017C80025D124D124D144D124D104D124D145D93F
:1017D80025D125D125D925D925D905D904D904D983
:1017E80025D125D125D125D125D125D925D925D131
:1017F80025D124D145D124D145D145D145D1A6D92A
:1018080025D125D125D125D125D125D125D125D120
:1018180025D125D125D125D125D125D125D125D110
:1018280026D926D125D125D145D144D124D124D1B9
:1018380024D924D965E124D924D944D923D143D141
:1018480004D904D904D904D904D904D904D904D9A8
:1018580004D904D904D904D904D904D904D904D998
:1018680004E104E104E104E104D904D904D904D968
:1018780004D924D904D904D904D904D904D904D958
:1018880005E105E105E105D905D905D925D925D908
:1018980025D925D925D924D904D904E104E104E1BD
:1018A80004D904D904D904D904D904D904D924D928
:1018B80024D924D924D924D924D924D924D924D938
:1018C80046D925D125D145D945D924D904D124D9FA
:1018D80025D925D925D925D925D925D925D924D119
:1018E80025D125D125D125D125D125D925D925D130
:1018F80025D124D145D124D145D145D145D1A6D929
:1019080025D125D125D125D125D125D125D125D11F
:1019180025D125D125D125D125D125D125D125D10F
:1019280046C945C945C945C945D124D124D925D970
:1019380005D9C4D025E105E1E4D825E125E125D97B
:1019480025D925D925D925D925D925D925D925D99F
:1019580025D925D925D925D925D925D925D925D98F
:1019680005E905E905E105E105E105E125E125D9F7
:1019780025D925D925D925D925D925D925D925D96F
:1019880025E125E125E125E125D925D925D925D93F
:1019980025D925D925D925D925E125E125E125E12F
:1019A80025D925D925D925D925D925D925E125E12F
:1019B80005E124E104E104E104E104E104E104E1D6
:1019C80026C946D126D104D104D124D945E125D947
:1019D80024D925D925D125D145D145C945C945C9D8
:1019E80025D125D125D125D125D125D925D925D12F
:1019F80025D124D145D124D145D145D145D1A6D928
:101A080025D125D125D125D125D125D125D125D11E
:101A180025D125D125D125D125D125D125D125D10E
:101A280045C945C925D125D125D925D925D945D196
:101A380005C905C146C146B925B105B126B925B9BB
:101A480045B145B145B145B145B145B145B145B1DE
:101A580045B145B145B145B145B145B145B145B1CE
:101A680025B925B925B925B925B945B145B145B136
:101A780045B145B146B146B146B146B146B146B1A8
:101A880045B145B145B145B125B925B925B925B9FE
:101A980025B925B925B946B946B166B166A966A979
:101AA80046B146B146B146B146B145B145B945B969
:101AB80025B925B925B925B925B925B925B925B92E
:101AC80046B926B925C146C946D925D9E4D8E4D0AE
:101AD80024D925D925D145D145C965C965C945C97F
:101AE80025D125D125D125D125D125D925D925D12E
:101AF80025D125D145D125D145D145D145D1A6D925
:101B080025D125D125D125D125D125D125D125D11D
:101B180025D125D125D125D125D125D125D125D10D
:101B280025D125D905D905E1E5E005D925D166C135
:101B3800E8B9CFDBD3EC34ED55ED35E555ED35EDB2
:101B480055E555E555E555E555E555E555E555E5BD
:101B580055E555E555E555E555E555E555E555E5AD
:101B680055E555E555E555E555E555E555E555E59D
:101B780055E555E555E555E555E555E555ED55ED7D
:101B880075E575E555E555ED35ED35F535F515F59D
:101B980035F535F535ED55E575E575DD95DD95DDFD
:101BA80035ED35ED35ED35ED55ED55ED55ED55ED9D
:101BB80055ED55ED35ED55E555E555E555E555E555
:101BC800D3F4CFDB8AC286B925C125D125D925E131
:101BD80024D925D925D125D145D145D145D145D1BE
:101BE80025D125D125D125D125D125D925D925D12D
:101BF80025D125D145D125D145D145D145D1A6D924
:101C080025D125D125D125D125D125D125D125D11C
:101C180025D125D125D125D125D125D125D125D10C
:101C280024D924D904E1E5E0E5E005D946C1A7B106
:101C3800EBB299FEDEFFFEFFFFF7FFF7FFFFFFFFA6
:101C4800FFFFFFFFFFFFFFFFFFFFFFFFFFFFFFFF9C
:101C5800FFFFFFFFFFFFFFFFFFFFFFFFFFFFFFFF8C
:101C6800FFFFFFFFFFFFFFFFFFFFFFFFFFFFFFFF7C
:101C7800FFFFFFFFFFFFFFFFDFFFDFFFDFFFDFFFEC
:101C8800FFFFFFFFFFFFFFFFFFFFFFFFFFFFFFFF5C
:101C9800FFFFFFFFFFFFFFFFFFFFFFFFFFFFFFFF4C
:101CA800DFFFDFFFDFFFDFFFFFFFFFFFFFFFFFFFBC
:101CB800FFFFFFFFFFFFFFFFFFFFFFFFFFFFFFFF2C
:101CC800BDFF9DFF79FEAEDB86B925C145D904D994
:101CD80025D925D925D925D125D125D905D905D95C
:101CE80025D125D125D125D125D125D925D925D12C
:101CF80025D125D145D125D145D145D145D1A6D923
:101D080025D125D125D125D125D125D125D125D11B
:101D180025D125D125D125D125D125D125D125D10B
:101D280024D144D124D904D905D946D166C1A6A164
:101D3800EBA2B9F6DEFFDEEFFFE7DEDFFFEFFFE73E
:101D4800DFF7DFF7DFF7DFF7DFF7DFF7DFF7DFF7DB
:101D5800DFF7DFF7DFF7DFF7DFF7DFF7DFF7DFF7CB
:101D6800DFEFFFEFFFEFDFEFDFEFDFF7FFF7DFF783
:101D7800DFF7DFF7DFF7BFF7BFF7DFF7DFFFDFFFDB
:101D8800DFF7FFEFFFEFFFEFFFEFFFEFFFEFFFEFF3
:101D9800FFEFFEEFFEF7DEF7DEFFDEFFBEFFBEFF62
:101DA800DFF7BFF7DFF7FFF7DFF7DFF7FFF7FFF73B
:101DB800FFF7FFF7FFF7FFF7FFF7FFF7DFF7DFF7AB
:101DC800FEEFDDFF7DFF92DCA7A987C905D105D904
:101DD80005D925D925D125D125D125D905E105E173
:101DE80025D125D125D125D125D125D925D925D12B
:101DF80025D125D145D125D145D145D145D1A6D922
:101E080025D125D125D125D125D125D125D125D11A
:101E180025D125D125D125D125D125D125D125D10A
:101E280044D144D124D904D125D945D166C186A944
:101E3800EBB279FEBEFFDFFFDFFFBFFFFFFFDFFF73
:101E4800BEFFBEFFDEFFDEFFDEFFDEFFDEFFDEFFE2
:101E5800DFFFDFFFDFFFDFFFDFFFDEFFDEFFDEFF8D
:101E6800DFFFDFFFDFFFDFFFDFFFDFFFDFFFDFFF7A
:101E7800DFFFDFFFDFFFDFFFDFFFDFFFDFFFDEFF6B
:101E8800FFFFFFFFDFFFDFFFDEFFDEFFDEFFDEFF1E
:101E9800DEFFDEFFDEFFDEFFBEFFBEFFBEFFBEFFD2
:101EA800FEFFFFFFFFFFFEFFDEF7FEFFFFFFFFFF66
:101EB800FFFFFFFFFFFFDFFFDFFFDFFFDFFFDFFFCA
:101EC800FFE7DDEF9DFFB2DCA7A987C926D105D9B9
:101ED80005D925D145D145C945D124D124D904E115
:101EE80025D125D125D125D125D125D925D925D12A
:101EF80025D125D145D125D145D145D145D1A6D921
:101F080025D125D125D125D125D125D125D125D119
:101F180025D125D125D125D125D125D125D125D109
:101F280024D924D924D904D925D945D145C945B9B5
:101F380008BA31F476FDB7FDF8FD18FE38FEF8FD55
:101F480038FE38FE38FE38FE38FE38FE38FE38FED9
:101F580037FE37FE37FE37FE37FE37FE38FE38FECF
:101F680038FE38FE38FE38FE18FE38FE18FE17FE1A
:101F780038FE38FE37FE38FE58FE58FE58FE58FE2A
:101F880056FE57FE57FE57FE57FE37FE37FE18FE21
:101F980038FE39FE38FE38FE38F618EE38EE58EEC0
:101FA8007CEFDDFFFEFFDDFFFEFFFEFFFEFFDEFF35
:101FB800FEFFFFFFFFFFDFFFBFFFBFFFBFFFBFFF4A
:101FC800FFEFDDF77CFF72DC66A167C926D9E5D093
:101FD80025D945D145C965C945C944D124D924D98C
:101FE80025D125D125D125D125D125D925D925D129
:101FF80025D125D145D125D145D145D145D1A6D920
:1020080025D125D125D125D125D125D125D125D118
:1020180025D125D125D125D125D125D125D125D108
:1020280005D905D925D904D924D945D145D125C9FA
:1020380046C966C166C166B986B1A7B1A7B1C7B1BD
:10204800A6A9A6A9A6A9A6A9A6A9A6A9A6A9A6A910
:10205800A6A9A6A9A6A9A6A9A6A9A6A9A6A9C6A9E0
:10206800C6A9C6A9C5A9C5A9C6A9C6A9C6B1C6B1E2
:10207800C6A9A5A9A5A9A5A9A5A9A5A9A5A9A5A9C7
:10208800E5A905AA06AAE6A9C6A1A6A1A699C7997F
:10209800A789E8892982AB8A4D9331A414B5B6C5BE
:1020A8005CEFBEF7FEFFFEFFFFFFFFFFFFFFFFFF36
:1020B800DEF7FEFFFFFFFFFFFFFFFFFFDEFFBEFFB4
:1020C800BDF7DDFF7DFF51E446A946C146D925D9B4
:1020D80025D925D145C945C945C924D124D904D90B
:1020E80025D125D125D125D125D125D925D925D128
:1020F80025D125D145D125D145D145D145D1A6D91F
:1021080025D125D125D125D125D125D125D125D117
:1021180025D125D125D125D125D125D125D125D107
:1021280025D925D145D145D144D144D144D124D153
:1021380025D1E4D025D946D946D925D124C945C9C0
:1021480046C946C946C946C946C946C946C946C90F
:1021580066D166D166D146C946C946C946C946C987
:1021680064D164D164D144D144D144D144D144D15F
:1021780044D145D145D145D145D145D145D145D1A8
:1021880024B924B944B165A9A6A949B20CBBAEBB10
:1021980014DD96DD5AEEFDFE7FFFBFFFDFFFDFFF98
:1021A800DFFFFFFFDFFFDFF7DFF7DFF7DEEFFFF728
:1021B800FFF7FFF7DEF7BEF7DEF7FFFFFFFFDEFFF3
:1021C800BDFF5BFFF6FD2CCB66B146C925D105D90D
:1021D80025D925D125D125D125D125D904D904E161
:1021E80025D125D125D125D125D125D925D925D127
:1021F80025D125D145D125D145D145D145D1A6D91E
:1022080025D125D125D125D125D125D125D125D116
:1022180025D125D125D125D125D125D125D125D106
:1022280046D145D145D145C945C944D144D124D128
:1022380045D925D925D905D9E4D825D925D924D9E9
:1022480005D905D905D905D905D905D906D906D994
:1022580005D905D905D905D905D905D906D906D984
:1022680004E104E104E124E125E125D925D945D992
:1022780005D105C905C105C105B946C187C1A8C9A8
:10228800ACDA4EEB52FC56FD18FEDBFE5DFFBEFFDE
:10229800BEFFDFFFFFFFFFFFDFFFBFFF9FFF9FFFC7
:1022A800BFFFBFFF9FFFBFFFDFFFDFFFDFFFDFFFD6
:1022B800BFFFBFFFBEFFBEFF7DFF1CFF79F6F7E53E
:1022C80091E48DCB48B224A145B966D125D125D951
:1022D80005D925D925D925D925D925D905D905D966
:1022E80025D125D125D125D125D125D925D925D126
:1022F80025D125D125D125D145D145D145D1A6D93D
:1023080025D125D125D125D125D125D125D125D115
:1023180025D125D125D125D125D125D125D125D105
:1023280046D146D145D125D125D124D124D124D196
:1023380004D125D125D125D125D945D945D9E3D0F1
:1023480005D905D905D905D905D905D905D925D975
:1023580025D925D925D925D925D925D925D925D985
:1023680025D905D905D105C9E5C005B925B166B195
:10237800C8B149B20CBBCFCBB2DC96F579FEFBFEF7
:102388005EFF7EFF9FFF9FFFBEFFBEFFDEFFFFFFDA
:10239800FEFFFFF7FFF7DEF7DFF7DFFFBFFFBFFF47
:1023A800DFFFDFFFDFFFDFFFBFFF9EFF3DFFFBFE1D
:1023B80039FE76FD92E4CFDBECCA29BAA7A946A17B
:1023C80045B945B945C145C986D924D104D125D9CE
:1023D80025D925D925D125D125D125D125D125D135
:1023E80025D125D125D125D125D125D925D925D125
:1023F80025D125D125D125D145D145D145D1A6D93C
:1024080025D125D125D125D125D125D125D125D114
:1024180025D125D125D125D125D125D125D125D104
:1024280026D926D905D905D905D904D924D945D11C
:1024380045D165D145C945C945C924C945D144D106
:1024480044D144D144D144D144D144D144D144D1DC
:1024580065D145D144D144D124C904C903C9E3C8CD
:10246800E5C026C187C909D2CCDAAFEBB3FC76FD4B
:1024780079FEFBFE9DFFFEFFFFFFFFEFFFEFFFE78B
:10248800FFDFFFDFFFE7FFE7FFEFFFEFDEEFDEF73E
:10249800DEF7FEFFFEFFFEFFFEFFFEFFFEFFFEFF74
:1024A800BDFF5CF7BAEEF6DDF3C430B46DAB699AE4
:1024B80008A286A125A925B925C905C905D126D906
:1024C80026D905D946E105D904D9E4D045E104D98E
:1024D80025D925D925D145D145C945C965C965C974
:1024E80025D125D125D125D125D125D925D925D124
:1024F80025D125D125D125D145D145D145D1A6D93B
:1025080025D125D925D925D925D925D125D125D1F3
:1025180025D125D125D125D125D125D125D125D103
:1025280007D906D126D145C945C945C925D125D9D7
:1025380004D904D945D904D145D124D124D124D9E9
:1025480023D124D924D924E105E9E5E8C5E0C5D893
:10255800E5D0E5C025A9A6A1489A0A9BEDA390B4A9
:10256800B5CD37D6DAEE5CFFBEFFBEFFBFFFBFFFBB
:10257800BFFFBFFFBFFFBFFFBFFFBFFFBFFFDFFF43
:10258800DFF7DFEFFFEFFFEFFFF7FFF7FEFFFEFFDD
:10259800DEFFBDFF5CFF9AFED7FDD4FCF1FB2EEBFE
:1025A80007E2C6D965D103C9E3C8E3C803D104D19A
:1025B80024D924D924D944D944D944D944D124D1BB
:1025C80067C926C946D146D125D125D125D145D9B6
:1025D80025D145D125D145D145D145D145D145D183
:1025E80025D125D125D125D125D125D925D925D123
:1025F80025D125D145D125D145D145D145D186D93A
:1026080025D125D925D925D925D925D125D125D1F2
:1026180025D125D125D125D125D125D125D125D102
:1026280026D125D145D145C945D124D124D904E1A4
:10263800E4E0E5E025E125D946D925D125D125D104
:1026480065B965B944B124B145B187B908C26AC250
:102658002DD310E435F518FEBAFE5CFFBEFFBEFFB1
:10266800BFFFDFFFFFFFFFFFFFFFFFF7FFEFFFEFFA
:10267800FFF7FFEFFFEFFFEFFFF7FFF7FFFFFFFFAA
:10268800FFFFFEFFDEFFDEFF9DFFFBFE17EE75E599
:1026980071D4EFCB0CBB28AAA7A186A165A945A92F
:1026A80044C144C145C145C945C945C945D145D1BC
:1026B80025D125D145D145D145D125D145C925C9F2
:1026C80046D145D125D124D124D145D125D125D9EB
:1026D80025D925D925D925D125D145D144D144D1CC
:1026E80025D125D125D125D125D125D925D925D122
:1026F80025D125D145D125D145D145D145D186D939
:1027080025D125D925D925D925D925D125D125D1F1
:1027180025D125D125D125D125D125D125D125D101
:1027280025D145D144D144D144D124D904D905E196
:1027380026E905D926D146C166B925B166B187B95A
:102748004AA2CCB2CFCBB2DC75ED38F6FAFE5CFF0C
:10275800DEFFFEFFFFFFBEFFBEFFBFFF9EFF7EFF47
:10276800DFFFDFFFDFF7DFEFFFEFFFE7FFE7FFEF59
:10277800FEE7FEEFFFF7FFFFDEFF9EFF3CFFFBFEDD
:10278800F6FD54ED50D46DC3CBC229BA87B125B13B
:1027980005B105B925C145C186C1A6C1A6C185B97E
:1027A80065C945C945D166D146D145D145D125D15F
:1027B80025D125D145D145D145D145D145D145D1A1
:1027C80003D924D924D924D944D944D124D105D131
:1027D80005D905D905D905D925D924D144D144D15C
:1027E80025D125D125D125D125D125D925D925D121
:1027F80025D125D145D125D145D145D145D186D938
:1028080025D125D925D925D925D925D125D125D1F0
:1028180025D125D125D125D125D125D125D125D100
:1028280024D924D924D924D124D124D925D925D1CE
:1028380025C966B9C7B1AAB28DC350CC75ED58FE8B
:10284800DCFE1DFF9EFFDFFFFFFFFFFFFFEFFFEF37
:10285800FFE7FFE7FFEFFFF7FFFFDFFFBFFFBFFF68
:10286800DFFFDFFFDFFFDFFFFFFFDEFFBEFF9DFFB4
:102878005CFFBAFEF7FD13ED10DC2CCB8ABA08B268
:1028880065B965B925C105C105D1E5D8E5E0E5E833
:1028980006F1E5E8E5E8E5E004D925D945D945D1CB
:1028A80025D925D904D904D904D904D905E105E1E4
:1028B80005E105E105E105E105E104D904D904D9FB
:1028C80003E144E923D923D924D924D125D145D9F1
:1028D80005D905D905D905D925D924D944D144D153
:1028E80025D125D125D125D125D125D925D925D120
:1028F80025D125D145D125D145D145D145D186D937
:1029080025D125D925D925D925D925D125D125D1EF
:1029180025D125D125D125D125D125D125D125D1FF
:1029280005D905E124D904D925D945D145C945C1D9
:10293800C7B110DC17FE7CFFFDFFFEFFFEFFDDFFC9
:10294800DFFFDFFFDFFFDFFFDFF7FFF7FFF7FFF74F
:10295800FFEFFFF7FFF7FFFFFFFFDFFFDFFFDFFFFF
:10296800FEFFBDFF5CFFBAFEF7FDF3ECF0DB4DDBCD
:1029780029C2C8C166C125C104C104C124C924C96A
:1029880025D925D925D905E1E4E0E4E0E5E005E924
:10299800E5E0E5E005E105E105E125E105E105D929
:1029A80024D924D924D924D924D904D904D904D997
:1029B80004E104E104E124D924D924D924D924D96F
:1029C80003D924D923D144D944D924D125D105D137
:1029D80025D925D925D905D925D924D924D924D922
:1029E80025D125D125D125D125D125D925D925D11F
:1029F80025D125D145D125D145D145D145D186D936
:102A080025D125D925D925D925D925D125D125D1EE
:102A180025D125D125D125D125D125D125D125D1FE
:102A280005D905D905D905D905D926D146C966B12B
:102A3800ECC238FEBEFFDEFFBDF7DEFFFFFFBEFFC4
:102A4800BFFFBFFFDFFFDFFFFFFFFFFFDFFFDFFF8E
:102A5800DFFFDFFFDFFFBFFFDFFF7EFFBAE6D7CD77
:102A680070B4EFAB4C9B8A8A088AC791A79987A153
:102A780087B186B166B986C186C186C186C165C17E
:102A880065C165C186C1A6C1C6B9C6B9A6B1A6B198
:102A9800C6B1C6B1A6B186B186B986B987C187C1A4
:102AA800C7B1C7B1C7B9A7B9A7B9A7B986B186B120
:102AB800A7B987B9A7B9A7B9A7B1A7B1A7B1A7B14E
:102AC800A6B986B9A6C145C124C965D145D925D1BC
:102AD80025D125D125D125D125D925D905D904D95F
:102AE80025D125D125D125D125D125D925D925D11E
:102AF80025D125D145D125D145D145D145D186D935
:102B080025D125D925D925D925D925D125D125D1ED
:102B180025D125D125D125D125D125D125D125D1FD
:102B280045D145D125D905D905D926D947C967B190
:102B3800ABB27AFEDFFFBEFF9EF7DFFFBFFF9FFF4E
:102B4800FFFFFFFFFFFFFFFFDFFFDFFFDFFFBFFF2D
:102B5800BFFFDFFFBEFF9EFFDFFFDEFF1CEF59D682
:102B680038EE38EE38EE59F679F69AFE99FE79FE87
:102B780079FE79FE59FE59FE59FE59FE58FE38FE77
:102B880078FE58FE58FE57FE78FE98FE98F698F69E
:102B980098F698F699FE99FE79FE59FE38FE38FEA9
:102BA80059FE59FE59FE59FE59FE79FE7AFE7AFE03
:102BB80059FE59FE59FE59FE59FE59FE59FE59FE55
:102BC80039FEB7FD15FDECD245B945C945D124D12B
:102BD80044D145D145C945C925D125D905D905E1EE
:102BE80025D125D125D125D125D125D925D925D11D
:102BF80025D125D145D125D145D145D145D186D934
:102C080025D125D925D925D925D925D125D125D1EC
:102C180025D125D125D125D125D125D125D125D1FC
:102C280065C165C945D104D105D926D927C967B178
:102C3800CCBA59FE9EFFDFF7FFFFFFFF9FFFBFFFE4
:102C4800DFFFDFFFFFFFFFFFFFFFFFFFFFF7FFFFD4
:102C5800FFF7FFF7FFF7FFF7DEF7DEF7FFFFFFFFEE
:102C6800DFFFDFFFDFFFFFFFFFFFFFFFFFFFFFF7D4
:102C7800FFF7FFF7FFF7FFF7FFF7FFF7FFF7FFF79C
:102C8800FEFFFFFFFFFFFFFFFFFFFFF7FFFFFFF75D
:102C9800FFFFFFFFFFFFFFFFFFFFFFFFFFFFFFFF3C
:102CA800FFFFFFFFFFFFFFFFFFFFFFFFFFFFFFFF2C
:102CB800FFFFFFFFFFFFFFFFFFFFFFFFFFFFFFFF1C
:102CC800FFFFFFFF7EFF72DCA7A966C145D124D1B3
:102CD80044D144D164C965C945D126D126D906D97C
:102CE80025D125D125D125D125D125D925D925D11C
:102CF80025D125D145D125D145D145D145D186D933
:102D080025D125D925D925D925D925D125D125D1EB
:102D180025D125D125D125D125D125D125D125D1FB
:102D280064C964C944D124D924D925D926C966B12E
:102D3800ECBA79FEBEFFFEEFFFE7DFE7DFE7FFF75C
:102D4800DFF7FFF7FFF7FFF7FFF7FFEFFFEFFFEF03
:102D5800FFEFFFEFFFEFFFEFFFEFFFEFFFEFFFEFFB
:102D6800FEF7FEF7FEF7FEF7FEF7FEF7FEF7FFF7B2
:102D7800FFF7FFEFFFEFFFEFFFEFFFEFFFE7FFE7E3
:102D8800FFEFFFEFFFEFFFEFDFF7DFF7DFF7DFF72B
:102D9800DFF7DFF7DFF7DFF7DFF7DFF7DFF7DFF77B
:102DA800FFF7DFF7DFF7DFF7DFF7DFF7DFF7DFF74B
:102DB800FFF7FFF7FFF7FFF7FFF7FFF7FFF7FFF75B
:102DC800FFDFFEEF7DFF92D4E8A986C145D124D963
:102DD80024D944D144C945C945C945D126D106D9C4
:102DE80025D125D125D125D125D125D925D925D11B
:102DF80025D125D145D125D145D145D145D186D932
:102E080025D125D925D925D925D925D125D125D1EA
:102E180025D125D125D125D125D125D125D125D1FA
:102E280064C964D144D124D124D924D945C965B908
:102E380029BA95FD5CFFDDFFFEFFFFFFFFF7FFF7F7
:102E4800DFFFDFFFDFFFDFFFFFFFFFFFFFFFFFFF0A
:102E5800FFFFFFFFFFFFFFFFFFFFFFFFFFFFFFFF7A
:102E6800FEFFFEFFFEFFFEFFDEFFBEFFBFFF9FFF70
:102E78009FFF9FFF9FFF9FFFBFFFBFFFDFFFDFFF9A
:102E8800DFFFDFFFDFFFDFFFDFFFBFFFBFFFBFFFAA
:102E9800BFFFBFFFBFFFBFFFBFFFBFFFDFFFDFFFFA
:102EA800BEFFBEFFBEFFBEFFBEFFBEFFBEFFBEFF32
:102EB800BEFFBEFFBEFFBEFFBEFFBEFFBEFFBEFF22
:102EC800FEF7DEFF7DFF92E486A945C166D904D9E5
:102ED80024D924D945D145C945C945C925D125D1C4
:102EE80025D125D125D125D125D125D925D925D11A
:102EF80025D125D145D125D145D145D145D186D931
:102F080025D125D925D925D925D925D125D125D1E9
:102F180025D125D125D125D125D125D125D125D1F9
:102F280025D144D144D124D124D124D925D125D1A6
:102F380004B908C24CD370E433ED33E534E554EDFD
:102F480034ED34ED34ED34ED34F534F514F514F591
:102F580014F514F514F534ED35ED35ED35ED35EDA5
:102F680034E534E534ED14ED14F5F4F4F4FCD4FC54
:102F7800D5FCD5FCD5FCF5FCF5FCF5F4F5F415F518
:102F880034ED34ED34ED34ED34ED34ED34ED34ED31
:102F980034ED34ED34ED34ED34ED34ED33ED33ED23
:102FA80014ED14ED14ED14ED14ED14ED14ED14ED11
:102FB80014ED14ED14ED14ED14ED14ED34ED34EDC1
:102FC80033ED34F50FE428C265C146D105D125D9C2
:102FD80005D925D925D125D145D125D125D125D129
:102FE80025D125D125D125D125D125D925D925D119
:102FF80025D125D145D125D145D145D145D186D930
:1030080025D125D925D925D925D925D125D125D1E8
:1030180025D125D125D125D125D125D125D125D1F8
:1030280005D926D925D125D125D125D925D905D9FF
:1030380046E1E4C825C904B904B904B945C124C1A5
:1030480065B165B145B145B945B925B925B925B9C0
:1030580025B925B925B925B925B945B945B945B120
:1030680046B946B946B146B146B146B146B146B190
:1030780046B166B166B166B165B165B165B165B1B4
:1030880065B165B165B165B165B165B165B165B188
:1030980065B165B185A985A984A984A984A984A9EC
:1030A80066A966A966A966A966A966A966A966A9A0
:1030B80066A966A966A966A966A966A966A966A990
:1030C80025B104B124B945C945D125D905D905D9B2
:1030D80005D925D925D925D125D125D924D924D92A
:1030E80025D125D125D125D125D125D925D925D118
:1030F80025D125D145D125D145D145D145D186D92F
:1031080025D125D925D925D925D925D125D125D1E7
:1031180025D125D125D125D125D125D125D125D1F7
:10312800E6D806D926D925D125D125D925D905D935
:1031380025D9E4C845D145D145D125D125D9E4D0F3
:1031480024C924C924C925C925C925C925D125D1FA
:1031580025D125D125D125D125D125D125D105D1D7
:1031680025D125D125D145C945C945C965C165C1FF
:1031780064C164C164C164C164C164C164C164C11F
:1031880045C945C945C925D125D125D125D125D13F
:1031980025D145D145C945C945C945C965C165C197
:1031A80045C945C945C945C945C945C945C945C9A7
:1031B80045C945C145C145C145C145C145C145C9C7
:1031C80046D105C925D145D925D9E4D004D146E150
:1031D80025D925D925D925D925D925D924D924D9F9
:1031E80025D125D125D125D125D125D925D925D117
:1031F80025D125D145D125D145D145D145D186D92E
:1032080025D125D925D925D925D925D125D125D1E6
:1032180025D125D125D125D125D125D125D125D1F6
:1032280006D906D906D905D125D125D145D145C913
:1032380066C1C7C128C269BA8AC249C229CA29CA8D
:1032480049CA49CA49CA49CA49CA49CA69CA69CA9E
:1032580049C249CA49CA49CA49CA49CA29CA29CA16
:1032680048CA48CA48C248C248C248C248C248C2F6
:1032780068C268C268C268C267C267C267C267C2FA
:1032880029CA29CA29D229D209D209D209D209D2EE
:1032980009D209D229D229CA29CA29CA29CA49CA96
:1032A80049CA49CA49CA49CA49CA49CA49CA49CA7E
:1032B80049CA49CA29CA29CA29CA29CA49CA49CAEE
:1032C80029C249CA08CA65C166C966D104D125D9C7
:1032D80025D925D925D925D925D925D925D924D9F7
:1032E80025D125D125D125D125D125D925D925D116
:1032F80025D125D145D125D145D145D145D186D92D
:1033080025D125D925D925D925D925D125D125D1E5
:1033180025D125D125D125D125D125D125D125D1F5
:1033280025D125D125D924D925D945D145C966B96D
:1033380049BA95FD1BFF3BFF5CFF7DFF5DFF1DFF4D
:103348001CFF3CFF3CFF3CFF3CFF3CFF3CFF3CFFBD
:103358003CFF3CFF3CFF3CFF3CFF3CFF3CFF3CFF8D
:103368005CFF5CFF5CFF5CFF5CFF5CFF5CFF3CFF9D
:103378003CFF3CFF3CFF3CFF3CFF3CFF3CFF3CFF6D
:103388003CFF3CFF3CFF3CFF3CFF3CFF3CFF3CFF5D
:103398003DFF3DFF3DFF3DFF3DFF3DFF3DFF3DFF45
:1033A8003CFF3CFF3CFF3CFF3CFF3CFF3CFF3CFF3D
:1033B8003CFF3CFF1CFF1CFF1CFF1CFF1CFF1CFFED
:1033C8005CFFDAFE58FEEFE365A965C166D1E4C883
:1033D80025D925D925D925D125D125D125D125D11D
:1033E80025D125D125D125D125D125D925D925D115
:1033F80025D125D145D125D145D145D145D186D92C
:1034080025D125D925D925D925D925D125D125D1E4
:1034180025D125D125D125D125D125D125D125D1F4
:1034280044D144D144D124D924D945D165C986A9E8
:10343800EBB299FEFEFFFFF7FFEFFFEFFFF7FFF795
:10344800FFEFFFEFFFF7FFF7FFF7FFF7FFF7FFF7D4
:10345800FFF7FFF7FFEFFFEFFFEFFFEFFFEFFFEFE4
:10346800FFF7FFF7FFF7FFF7FFF7FFEFFFEFFFEFBC
:10347800FFEFFFF7FFF7FFF7FFF7FFF7FFF7FFF79C
:10348800FFEFFFEFFFEFFFE7FFE7FFE7FFE7FFE7EC
:10349800FFE7FFE7FFE7FFEFFFEFFFEFFFEFFFF7C4
:1034A800FFEFFFEFFFEFFFEFFFEFFFEFFFEFFFEFA4
:1034B800FFF7FFEFFFEFFFEFFFEFFFEFFFF7FFF77C
:1034C800FEEFFEFF7CFF71CCC6A186B965C945D960
:1034D80025D925D925D925D145D145D145D145D19C
:1034E80025D125D125D125D125D125D925D925D114
:1034F80025D125D145D125D145D145D145D186D92B
:1035080025D125D125D125D125D125D125D125D103
:1035180025D125D125D125D125D125D125D125D1F3
:1035280044C925D904E1E4E8C5E8E5E8E6D867B97F
:10353800CBA2DBF6BEFFFFFFDFF7FFF7FFF7BFF712
:10354800BFFFDFFFBFFFBEFFDFFFBFFFFFF7FFEFDC
:10355800FFEFFFF7FFF7FFF7FFEFFFEFFFF7FFFFC3
:10356800FEFFFEFFFEFFFFFFDFFFDFFFDFFFDFFFE6
:10357800DFFFDFFFFFFFFFFFFFFFFFFFBFF7DFFFFB
:10358800FFFFFFFFFFFFFFFFFFFFFFFFFFFFFFFF43
:10359800FFFFFFFFFFFFFFFFFFFFFFFFFFFFFFFF33
:1035A800FEFFFEFFDFFFDFFFBFFFBFFFBFFFDFFF45
:1035B800DFFFDEFFDEF7DEF7FFF7DFFFDFFFBFFF2E
:1035C800FDE7FDF79CFF91D466A926C9E6D805D981
:1035D80026D126D145D125D125D124D904D904E134
:1035E80025D125D125D125D125D125D925D925D113
:1035F80025D125D145D125D145D145D145D1A6D90A
:1036080025D125D125D125D125D125D125D125D102
:1036180025D125D125D125D125D125D125D125D1F2
:1036280025D125D905E104E105E105E126D966B1F1
:103638000BB3DAFEDEFFBEFFFFFFFFFFBEF7FFFFA3
:10364800DEFFFEFFFFFFFEFFDEFFDEFFFFFFFFFFE7
:10365800FFFFDFFFBFFFBFFFDFFFFFFFDFFFBFFF92
:10366800DEFFDEFFDEFFDEFFDFFFDFFFDFFFDFFF66
:10367800DFFFFFFFFFFFDFFFDFFFDFFFFFFFFFFFD2
:10368800FFFFFFFFFFFFFFFFFFFFFFFFFFFFFFFF42
:10369800FFFFFFFFFFFFFFFFFFFFFFFFFFFFFFFF32
:1036A800FFFFFFFFFFFFDFFFDFFFDFFFFFFFFFFF82
:1036B800FFFFFFFFFFFFFFFFFFFFFFFFFFFFDFFF32
:1036C800FEFFDDFFBDFF50D4A7B187D905D926D9A4
:1036D80025D125D125D125D925D925D904D904E144
:1036E80025D125D125D125D125D125D925D925D112
:1036F80025D125D145D125D145D145D145D1A6D909
:1037080025D125D125D125D125D125D125D125D101
:1037180025D125D125D125D125D125D125D125D1F1
:1037280025D105D925D925D144D124D125D165B9AB
:1037380048B2D2E458FE17FE58FEB9FEB9FE58FE4C
:10374800BAFEB9FEB9FE99FE58FE78FE79FEBAFEB9
:1037580079FE59FE39FE39FE59FE79FE59FE39FEC9
:1037680079FE79FE7AFE9AFE9AFE9AFE9AFE99FEF4
:1037780078FE98FE99FE99FE79FE79FE99FE59FE2B
:1037880099FE99FE99FE99FE99FE99FE9AFE9AFE77
:1037980099FE99FE99FE99FE99FE99FE99FE99FE69
:1037A800BAF69AFE9AFE7AFE7AFE7AFE7AFE7AFED9
:1037B8007AFE9AFE9AFE9AFE9AFE7AFE7AFE7BFEC0
:1037C80039FEF8FD75FD6DD3A7C105C925D925D9E1
:1037D80025D125D105D905D905D925D924D904D983
:1037E80025D125D125D125D125D125D925D925D111
:1037F80025D125D145D125D145D145D145D1A6D908
:1038080025D125D125D125D125D125D125D125D100
:1038180025D125D125D125D125D125D125D125D1F0
:1038280026D125D145D165C964C944D124D924D12B
:1038380045C145B1A7C1A7C186B985B1C6B9A6B961
:10384800A8B1C7B1E8A9C7A9A7B1E7B9C6A9C6A1D0
:10385800E7A9C7A9A7B1A7B1C7B1C7B1A6B186B92A
:10386800C8A1C8A1C8A1E8A1E8A1E7A1E7A1E7A16B
:10387800E7A9C6B1A6B1C6B1A6B1A6B1C7B9A7B9DD
:10388800A7B1A7B1A7B1A7B1A7B1A7B1A7B1A7B170
:10389800A7B1A7B1A7B1A7B1A7B1A7B1A7B1A7B160
:1038A800C7B1C7B1C7B1C7B1A7B1A7B1A7B1A7B1D0
:1038B800A7B1C7B1C7B1C7B1C7B1A7B1A7B1C7B1A0
:1038C80089B9A8B987A966B166C905D146E104D105
:1038D80025D125D905D905D925D945D145D145D1F0
:1038E80025D125D125D125D125D125D925D925D110
:1038F80025D125D145D125D145D145D145D1A6D907
:1039080025D125D125D125D125D125D125D125D1FF
:1039180025D125D125D125D125D125D125D125D1EF
:1039280026D125D145C965C184C144D104D904E152
:1039380025D945D905D106D926D945D124C924D1B7
:1039480006D106D146C926C925D145D145C965C183
:1039580065C165C945C945C965C965C945D145D167
:1039680047C947C167C166C166C166C166C145C965
:1039780024C924D125D945D945D925D125D125C949
:1039880025D125D125D125D145D145D145D145D1FF
:1039980045D145D145D145D145D145D145D145D16F
:1039A80024D124D124D125D125D125D124D124D164
:1039B80024D124D124D124D124D124C924C944D147
:1039C800E7D027C967C946C105D125E1E4D845D95B
:1039D80025D125D125D925D925D165C965C165C187
:1039E80025D125D125D125D125D125D925D925D10F
:1039F80025D125D145D125D145D145D145D1A6D906
:103A080025D125D125D125D125D125D125D125D1FE
:103A180025D125D125D125D125D125D125D125D1EE
:103A280006D925D145C984C164C144D1E4E004E183
:103A380025D925C946C186C986B9E6B9E6B985B189
:103A4800A7C1A7B9A7B9A6C166C9C3C805D945D929
:103A580024D104D904D925D944D144D144D124D975
:103A680006D906D926D925D925D125D925D905E1BB
:103A780004D925E125E104D125C986C186B9C7B98C
:103A880087B987B987B987B987B987B987B987B92E
:103A980087B987B987B987B987B987B987B987B91E
:103AA80086C186C1A6C1A6C1A6C1A6C186C186C156
:103AB800A6C1A6B9A6B9A6B9A6B9A5B9C6B9C5B9C0
:103AC80048C968C146B966C946D925E1C3D825D9C8
:103AD80025D125D125D925D145C965C965C165C176
:103AE80025D125D125D125D125D125D925D925D10E
:103AF80025D125D145D125D145D145D145D1A6D905
:103B080025D125D125D125D125D125D125D125D1FD
:103B180025D125D125D125D125D125D125D125D1ED
:103B280005D905D925D164C964C924D1E4E025D9CA
:103B380066C1C7A930E4F7FD37FE36EE77F677FEA3
:103B480078FE77F677FEF5FD91FCC7C945D125D9F2
:103B580005D905E105E125D944D144D144D144D161
:103B6800E4E004D904D904D904D904D904D904D97E
:103B780025D945D966C965B12CD354FDF6F578FE2B
:103B880059FE59FE59FE59FE59FE59FE59FE59FE75
:103B980059FE59FE59FE59FE59FE59FE59FE59FE65
:103BA80039FE59FE59FE58FE58FE58FE58FE38FE9A
:103BB80058FE58FE58FE58FE58FE58FE58FE58F655
:103BC800D8FD14FDEBC286A945C125D905E124D944
:103BD80025D125D125D925D925D145D145D125D1DD
:103BE80025D125D125D125D125D125D925D925D10D
:103BF80025D125D145D125D145D145D145D1A6D904
:103C080025D125D125D125D125D125D125D125D1FC
:103C180025D125D125D125D125D125D125D125D1EC
:103C280005D905D924D944D144D104D9E5E026D110
:103C380066A9AEC35CFFDEFFFEFFFEF7FEEFFEF7F0
:103C4800FEF7FDF7FDFFDCFFF6FDE7B165C145D1E5
:103C580025D105D905D905D925D145C945D145D19C
:103C680024D924D924D924D924D925D905D905D9A1
:103C780005D146C9A7B9E7A191D49DFFFEFFFEF77C
:103C8800FFF7FFF7FFFFFFFFFFFFFFFFFFFFFFFF4C
:103C9800FFFFFFFFFFFFFFFFFFFFFFFFFFFFFFFF2C
:103CA800FFF7FFF7FFF7FFEFFFF7FFF7FFFFFFFF54
:103CB800FFF7FFF7FFF7FFFFFFFFFFFFFFFFFFF72C
:103CC800BDFFDDFF98FEC9AA45A966D904D904D964
:103CD80025D125D125D905D905D905D905E1E5E0AD
:103CE80025D125D125D125D125D125D925D925D10C
:103CF80025D125D145D125D145D145D145D1A6D903
:103D080025D125D125D125D125D125D125D125D1FB
:103D180025D125D125D125D125D125D125D125D1EB
:103D280004D124D924D944D124D105E1E6E007D12E
:103D380087A976F53CFF9EFFFFF7FFE7FFEFFFF748
:103D4800DEF7FEF7FEFF9CFFF3E4A6A966C146D1A5
:103D580046D126D125D925D925D125D125D125D971
:103D680044D144D144D144D125D125D905D905D947
:103D780006D926D167B9E8A9B3DC3CFFBEFFFFF737
:103D8800FFF7FFF7FFF7FFF7FFF7FFF7FFF7FFF77B
:103D9800FFF7FFF7FFF7FFF7FFF7FFF7FFF7FFF76B
:103DA800FFF7FFEFFFE7FFE7FFEFFFF7FFF7FFF78B
:103DB800FFF7FFEFFFF7BFF7DFFFDFFFDFF7FFF7E3
:103DC800FDEFDDEF9BFF70C4659945C925D925D95D
:103DD80025D125D125D905D905D905D9E5E0E4E8C6
:103DE80025D125D125D125D125D125D925D925D10B
:103DF80025D125D145D125D145D145D145D186D922
:103E080025D125D125D125D125D125D125D125D1FA
:103E180025D125D125D125D125D125D125D125D1EA
:103E280024D124D924D144D144D105D9E6E027C9E5
:103E38006BC219FE7EFF9FFFDFFFDFFFDFFFBFFFC3
:103E4800DFFFBFFFDEFF5CFF92E467B146C946D1E2
:103E580025D125D125D925D925D125D125D925D98A
:103E680044D144D144D145D125D905D905E1E5E06E
:103E7800E5D826D147C1A8B173EC3DFFBFFFBEFF0F
:103E8800DEFFDEFFDEFFDEFFDEFFDEFFDEFFDEFF42
:103E9800DEFFDEFFDEFFDEFFDEFFDEFFDEFFDEFF32
:103EA800DEFFFEFFFEFFFEFFDEFFBEFF9EFFDFFF21
:103EB800DFFFFFFFDFFFBFFFDFFFBFFFBFFFFFFF2A
:103EC800FEEFFEF7BDFF54DDA7A166C925D125D1B8
:103ED80025D145D125D125D125D125D904D904E12C
:103EE80025D125D125D125D125D125D925D925D10A
:103EF80025D125D145D125D145D145D145D186D921
:103F080025D125D125D125D125D125D125D125D1F9
:103F180025D125D125D125D125D125D125D125D1E9
:103F280025D925D924D144C945C945D126D146B971
:103F38008ED3FCFEBFFF9FFFBFFFFFFFDFFFBFFF6A
:103F4800DFFFDFFFBEF75CFF30D466A926C905D1C5
:103F580025D925D125D925D125D125D125D125D199
:103F680025D125D125D125D125D905D905D905D9D9
:103F780005D946D987C987B9AFDB18FE3CFF5CFF76
:103F88005DFF5DFF3DFF3DFF3DFF3DFF5DFF5DFFC9
:103F98005DFF5DFF5DFF5DFF5DFF5DFF5DFF5DFF39
:103FA8001CFF5CFF5CFF5CFF3CFF1CFF1CFF7DFFF0
:103FB8009EFFFFFFFFFFDFFFBFFFBFFF9EFFDFFF8B
:103FC800DFF7FFFFBEFF18FE08AA66C125D125D17D
:103FD80045D145D125D125D145D145D144D124D18B
:103FE80025D125D125D125D125D125D925D925D109
:103FF80025D125D145D125D145D145D145D186D920
:1040080025D125D125D125D125D125D125D125D1F8
:1040180025D125D125D125D125D125D125D125D1E8
:1040280025D925D925D945C965C965C965C186A9CF
:1040380071D47CFFDEFFDEFFFFF7FFF7FFF7DFFF3E
:10404800FFFFFFF7FEEF7CFFCEBB66A946C904D190
:1040580025D145D145D145D145D145D125D125D108
:1040680025D925D125D125D125D125D125D925D980
:1040780005D125D166C965B9A6B168BAAAB2EAB2AE
:10408800ABB2ABB2ABB2ABB2ABB2ABB2ABB2ABB240
:10409800ABB2ABB2ABB2ABB2ABB2ABB2ABB2ABB230
:1040A8006BBAABBAABB2AAB2ABBAABBAABB22DA3CE
:1040B8009AEEBEF7FFF7DFF7DFFFDFFFFFF7FFF747
:1040C800BFFFFFFF9EFF9AFE49B246B946D145D1D0
:1040D80045D125D125D925D925D145D144D144D19A
:1040E80025D125D125D125D125D125D925D925D108
:1040F80025D125D145D125D145D145D145D186D91F
:1041080025D125D125D125D125D125D125D125D1F7
:1041180025D125D125D125D125D125D125D125D1E7
:1041280005D905D905D944D165C985C986B9C6A1B6
:1041380033DDBCFFFDFFFEFFFEF7FFF7FEF7FFFFD5
:104148009FFFFFFFFEF75BF78DB385A986D145D1A9
:1041580044C944C944C944D145D125D125D925D913
:1041680045D145D145D125D125D125D125D125D137
:1041780045D924D145D185D165C965C145B945B968
:1041880025C125C125C125C125C125C125C125C1F7
:1041980025C125C125C125C125C125C125C125C1E7
:1041A80006C926C145B945B945C146C167B1C899CF
:1041B800D7ED9EFFFFFFDFFFBFFFFFFFFFFFFFF70A
:1041C800DFFFDFFF9EFFDAFECBBA45B166D145D1EE
:1041D80025D125D905D905D925D925D125D124D148
:1041E80025D125D125D125D125D125D925D925D107
:1041F80025D125D145D125D145D145D145D186D91E
:1042080025D125D125D125D125D125D125D125D1F6
:1042180025D125D125D125D125D125D125D125D1E6
:1042280025D105D905D924D145D165C966C1C6A10D
:1042380094E5BDFFFEFFFEFFFFFFFEF7FEF7DFFF81
:104248005FFFDFFFDEFF3BFF6CB345A966D145D1B9
:1042580044C944C944C944D145D125D905D905E142
:1042680045D145D145D145D145D145D125D125D1D6
:1042780025D104D104D104D9E4D005E125E105E133
:1042880004E904E904E904E904E904E904E904E9BE
:1042980004E904E904E904E904E904E904E904E9AE
:1042A80005E925E125D924D925E125E146C9A7B1A4
:1042B80075F57DFFDEFFDFFF9EFFBFFFBEFFDEFF60
:1042C800FFFFFFF7DEFF1AFF2CC345B166D124D1EB
:1042D80025D105D905E105E105D925D925D925D95E
:1042E80025D125D125D125D125D125D925D925D106
:1042F80025D125D145D125D145D145D145D186D91D
:1043080025D125D125D125D125D125D125D125D1F5
:1043180025D125D125D125D125D125D125D125D1E5
:1043280045C925D105D905D925D125D146C9A7A97A
:1043380074EDBDFFFEFFDEFFFFFFDFF7DFFFBFFF0E
:104348007FFFDFFFDEFF3BFFAEC325B126D905E1C6
:1043580004D924D124D125D125D125D125D905D9D0
:1043680044D124D125D125D125D125D125D125D177
:1043780024D165D945D945E105D905E1E5E0C5E090
:1043880004D904D904D904D904D904D904D904D93D
:1043980004D904D904D904D904D904D904D904D92D
:1043A80004E124D924D123D124D904D925C9A7A922
:1043B80075ED7CFFBDF7DFFFBFFFDFFFDFFFFFFF0E
:1043C800FFF7FEF7FEFFFAFE2CC345B945D124D10D
:1043D80025D905D905E105D905D925D125D125D175
:1043E80025D125D125D125D125D125D925D925D105
:1043F80025D125D145D125D145D145D145D186D91C
:1044080025D125D125D125D125D125D125D125D1F4
:1044180025D125D125D125D125D125D125D125D1E4
:1044280045C925D105D905D905D905D946D1A7B199
:1044380054E59CFFFFFFDEFFFFFFFFFFFFFFBFFF0D
:10444800DFFFFFF7FEF79DFF10D426B9E5E0C5E8CA
:10445800C4E004E104D925D925D125D125D125D118
:1044680024E124E104D905D905D925D925D145D197
:1044780045C965D124C945D125D145D905D925D9FD
:1044880065C965C965C965C965C965C965C965C9B4
:1044980065C965C965C965C965C965C965C965C9A4
:1044A80024C964C984C964C964D165D186C107A215
:1044B80037F6FEFFFEEFFFF7FFF7DFFFDFF7FFF747
:1044C800FFF7FEF7DDFFD9FEEBC245B925D125D9A7
:1044D80025D925D905D905D925D145D145C945C9F4
:1044E80025D125D125D125D125D125D925D925D104
:1044F80025D125D145D125D145D145D145D186D91B
:1045080025D125D925D925D925D925D125D125D1D3
:1045180025D125D125D125D125D125D125D125D1E3
:1045280007D107D126D126D146D146D166C1A6B139
:10453800ADCB3AFFFDFFFDE7FEE7FFEFBFFF9FFFB3
:10454800FFEFFFEFFFF7BEFFDBFE52CC09A267A922
:1045580026C106D905E1E5E8E4E804E103E103E161
:1045680004D904D904D904D904D904D904E104E14B
:1045780004E104E104E104E104E104E104E104E10B
:1045880003D903D903D903E104E1E4E0E4E8E4E86A
:10459800E4E8E4E0E4E0E4E004E125E125E124D90D
:1045A800E5E8E5E026E147D1E5B046994EBBD7E519
:1045B8009DF7FEEFFFE7FFE7FFEFFFFFBFFF9FFF5E
:1045C800FFE7FEEF9DFFB6FD09B246B946D105D11A
:1045D80025D925D925D925D925D924D924D924D1EE
:1045E80025D125D125D125D125D125D925D925D103
:1045F80025D125D145D125D145D145D145D1A6D9FA
:1046080025D125D925D925D925D925D125D125D1D2
:1046180025D125D125D125D125D125D125D125D1E2
:1046280006D906D926D125D145D145D145C986C156
:10463800E7A913ED3BFFFEFFFEF7FFF7FFFF9FFF24
:10464800FFFFDEFFFEFFDEFFDEFFBDFF38F6EFC334
:104658008AAAE8A966A946B146B945B945C166C15D
:1046680045C165C965C985C986C985C965C965C999
:1046780065C965C965C965C965D165D165D165D1A2
:1046880066C966C966C966D166D166D166D166D182
:1046980066D166D166C946C945C145B945B945B966
:1046A80024A965A9A6A949AA8EC375EDFBFEBEFF7C
:1046B8009EFFBEFFBEFFDFFFFFFFFFF7FFF7FFF71D
:1046C8009DF7DEFF58FEECBA26A967C946D9E4D0A3
:1046D80005D925D925D925D925D925D924D124D114
:1046E80025D125D125D125D125D125D925D925D102
:1046F80025D125D145D125D145D145D145D1A6D9F9
:1047080025D125D925D925D925D925D125D125D1D1
:1047180025D125D125D125D125D125D125D125D1E1
:10472800E5E005E125D944D144D144D145D146D16C
:1047380005B9C8B9B3EC1CFFBEFF7DEFFFF7FFF763
:10474800BEFFDFFFBEFFBDF7DDF7FDF7FEFFFEFF93
:104758005CFF59F634E551D48EC3CBB249A229A2E5
:10476800E7B1C7B1A6A986A986A166A166A166A177
:1047780086A966A966A966A966A966A966A966A999
:1047880086A186A166A166A166A166A966A987A970
:1047980087A187A1A7A1E8A929AA69AACBBA2CC38E
:1047A8004FC4F2D4F6ED1AFFBDFFDEFFDEFFBEFFF9
:1047B8007EFF9FFFBFFFDFFFBEFFBEF7DEEFFEEF0E
:1047C8009DFFB6FD0CC325A167C926D1E4D025E11C
:1047D80025D925D925D925D925D925D925D125D1F1
:1047E80025D125D125D125D125D125D925D925D101
:1047F80025D125D145D125D145D145D145D1A6D9F8
:1048080025D125D925D925D925D925D125D125D1D0
:1048180025D125D125D125D125D125D125D125D1E0
:10482800E4E004E124D944D144C944D124D905D9C8
:1048380047E106C9C9C1D0DBBBFEBEFFBDF7DEEF4D
:10484800BFFFBFFFDFFFFFFFDFEFDEEFFFF7BEF7C2
:10485800BEFFDEFFBEFF9EFF7EFF5DFF1CFFDBFE8F
:1048680039FE18FED7FD96FD76FD76FD76FD76FDC0
:1048780076FD76FD76FD76FD76FD76FD76FD76FD98
:1048880076FD76FD76FD76FD76FD76FD96FD96FD48
:10489800D7FDF7FD18FE59FE99FEBAFE1CFF7DFFF5
:1048A800BEFFDEFFFFFFDEFFDEFFFFF7FFF7FFF7CC
:1048B800FFFFFFFFDEFF9DFFBEFFDEFF9EFF1BFF2A
:1048C800B2FC28BA86B946C925D1E5D866E9E4D04C
:1048D80025D925D125D125D925D925D925D125D100
:1048E80025D125D125D125D125D125D925D925D100
:1048F80025D125D145D125D145D145D145D1A6D9F7
:1049080025D125D925D925D925D925D125D125D1CF
:1049180025D125D125D125D125D125D125D125D1DF
:1049280004E124D943D143D143D143D124D905E16A
:1049380005E1E6D006C147B16AB2D2DC78FEBDFF18
:10494800DFFFBFFF9FF7DFFFFFFFDFFFBFFFDFFFD7
:10495800BFFFBFFFBFFF9EFF9EFFDFFFFFFFFFFF01
:10496800BFFFBFFFBFFFBFFFBFFFBFFFBFFFBFFF4F
:10497800BFFFBFFFBFFFBFFFBFFFBFFFBFFFBFFF3F
:10498800BEFFBEFFBEFFBEFFBEFFBEFFDEFFDEFFF7
:10499800DEFFDEFFDEFFDEFFFEFFDEFFBEFFDEFF27
:1049A800DFFFDFFFDFFFDFFFDFFFDFFFDFF7FFEF07
:1049B800FFE7FEEFFEF7DEFFBEFFDBFED4EC0DBB2C
:1049C80045B165C145C904D125D925E124D924D1EA
:1049D80045D145D125D125D125D925D925D925D1C7
:1049E80025D125D125D125D125D125D925D925D1FF
:1049F80025D125D145D125D145D145D145D1A6D9F6
:104A080025D125D925D925D925D925D125D125D1CE
:104A180025D125D125D125D125D125D125D125D1DE
:104A280024D144D144D144D144D144D124D924D926
:104A380025D925D926D166C145B1C6B148B2ADDB65
:104A480056DD3DFF9FFF5DFFDFFFDFFF9EFFBEFFDF
:104A5800DFFFDFF7DFF7FFF7FFF7FFEFFFE7FFE71E
:104A6800FFEFFFEFFFEFFFEFFFEFFFEFFFEFFFEFCE
:104A7800FFF7FFF7FFF7FFF7FFF7FFF7FFF7FFF77E
:104A8800FFF7FFF7FFF7FFF7FFF7FFF7FFF7FFF76E
:104A9800FFEFFFEFFFEFFFEFFFEFFFEFFFEFFFEF9E
:104AA800FFF7DFF7BFF7DFFFBFFF9FFFBFFFFFFF86
:104AB800FFFFDEFF3CFFF7F510D46AB287A946B1C5
:104AC80085D124C924D145D903D124D944D144D18D
:104AD80044C945C945D125D125D925D925D925D9AF
:104AE80025D125D125D125D125D125D925D925D1FE
:104AF80025D125D145D125D145D145D145D1A6D9F5
:104B080025D125D925D925D925D925D125D125D1CD
:104B180025D125D125D125D125D125D125D125D1DD
:104B280045C945C945D144D124D124D924D924D152
:104B380045D1E4C845D186D925D145D144C9E3C07A
:104B4800C7B129B24DCBB2ECF6FDFAFE9DFFDDFFF1
:104B5800FEFFFEFFFFF7FFF7FFF7FFEFFFEFFFEFA7
:104B6800FFF7FFEFFFEFFFEFFFE7FFEFFFEFFFEFCD
:104B7800FFEFFFEFFFEFFFEFFFEFFFEFFFEFFFEFBD
:104B8800FFEFFFEFFFEFFFEFFFEFFFEFFFEFFFEFAD
:104B9800FFEFFFEFFFEFDFEFFFEFFFF7FFF7FFF7A5
:104BA800DEF7FFFFFFFFDEFFDEFFBEFFFCFEF8FDC6
:104BB800D3EC8FD329BA86B145B945B945C165C982
:104BC80024C944D144D924D924D944D923C984C96E
:104BD80064C945C945D125D125D925D925D925D98E
:104BE80025D125D125D125D125D125D925D925D1FD
:104BF80025D125D145D125D145D145D145D1A6D9F4
:104C080025D125D925D925D925D925D125D125D1CC
:104C180025D125D125D125D125D125D125D125D1DC
:104C280066C945C945D125D125D925D925D924D144
:104C380024D145D145D9E4D024E104E104E104E9D3
:104C480005D904D104C124B985B127AA0ABBCDC3AB
:104C580091CC53DDF6ED38F699FEFBFE3DFF5DFF86
:104C68009EFF9EFFBEFFBEFFBEFFBEFFBEFFBEFF94
:104C7800BEFFBEFFBEFFBEFFBEFFBEFFBEFFBEFF44
:104C8800BEFFBFFFBFFFBEFFBEFFBEFFBEFFBEFF32
:104C98009EFFBEFF9EFF7EFF5DFF3DFFFCFEBBFE4D
:104CA80058FED6F533E5B2DC0FCC0CBB29B2A7B958
:104CB80026B905C9E5D0E5D805E124D924D924D9F0
:104CC80045D145D924D9E3D024D944D924D165D1B3
:104CD80045C945C925D125D125D925D925D125D1DC
:104CE80025D125D125D125D125D125D925D925D1FC
:104CF80025D125D145D125D145D145D145D1A6D9F3
:104D080025D125D925D925D925D925D125D125D1CB
:104D180025D125D125D125D125D125D125D125D1DB
:104D280046C926D125D105D905D905D925D925D1F1
:104D380025D166D924D165D965D904D124D944E1CE
:104D4800E5E005E105E125D945D125C925C125B904
:104D580025B945B965B986B9C7C108CA69CA8AD229
:104D6800EDD20DD32DDB4EDB4EDB6EDB6EE36EE357
:104D78006EE38EDB8EDB8EDB8EDB8EDB8EDB8FDBFA
:104D88008EDB8EDB8EDBAEDBAEDBAEDBAEDB8EDB53
:104D98006DD34DDB2CDBECD2ABD26ACA29CA08C270
:104DA80086B965B945B925B925B925C125C925D11A
:104DB80045D125D925D924E124E104E103E903E912
:104DC80046D146D125D925D905D904D945D924D1E3
:104DD80045D125D125D925D925D925D145D145D1A3
:104DE80025D125D125D125D125D125D925D925D1FB
:104DF80025D125D145D125D145D145D145D1A6D9F2
:104E080025D125D925D925D925D925D125D125D1CA
:104E180025D125D125D125D125D125D125D125D1DA
:104E280025D125D905D905D905D905D925D925D11A
:104E380066D145C125B904B165B945B965B944B16B
:104E480045C145C145C145C945C925C905D105D192
:104E580005D105D105D105C904C104C104B904B9F6
:104E680005B105B105B105B105B105B105B105B18A
:104E780005B105B105B105A905A905A905A905A9A2
:104E880004A904A904A924A924A924A924A924A912
:104E980024A924A924B124B124B124B904B904B99A
:104EA80025C905C905D105D105D105D125C945C1F2
:104EB80065C165B965B964B964C124C904D104D1AF
:104EC80025B146B946C925D146D925D925D925D9E7
:104ED80025D925D925D925D925D925D144D144C9BC
:104EE80025D125D125D125D125D125D925D925D1FA
:104EF80025D125D145D125D145D145D145D1A6D9F1
:104F080025D125D925D925D925D925D125D125D1C9
:104F180025D125D125D125D125D125D125D125D1D9
:104F280004D905D905D904D904D925D925D145C924
:104F380045B1E8B9EBCA8AB2EBB2CAB2CAB2AAAAF8
:104F4800E9AAE9AAC9B2C9B2A9BAA9C28AC28ACACF
:104F58006ACA8ACA8BCA8BC28BC28BC28BC28BBAF3
:104F6800ABBAABBAABBAABBAAABAAABAAABAAABA15
:104F7800AABAAABAAABAAABAAABAAABAAABAAABA09
:104F8800ABBAABBAABBAAABAAABAAABACABACABAB6
:104F9800CABACABACABACABACABAAABAAABAAAC241
:104FA8008AC28AC28ACA8ACA8ACA8ACA8AC28ABA81
:104FB800AABACAB2CAB2CAB2AAB2AABA8ABA8AC2C1
:104FC800CBBA8ABA29C246B925C146D105D125D955
:104FD80025D925D905D905D925D924D144D144C9FC
:104FE80025D125D125D125D125D125D925D925D1F9
:104FF80025D125D145D125D145D145D145D1A6D9F0
:1050080025D125D925D925D925D925D125D125D1C8
:1050180025D125D125D125D125D125D125D125D1D8
:1050280004D924D924D924D924D924D145C965B986
:10503800AAC254FDFAFE1BFF5CFF3CFF5DFF7DFF2B
:105048009BFF9BFF7BFF7BFF7CFF7CFF7CFF7CFF44
:105058005CFF5CFF5DFF5DFF5DFF5DFF5EFF5EFF68
:105068005CFF5CFF7CFF7CFF7CFF7CFF7CFF7CFFA0
:105078007CFF7CFF7CFF7CFF7CFF7CFF7CFF7CFF50
:105088003DFF3DFF3DFF3DFF5CFF5CFF5CFF5CFFBC
:105098005DFF7DFF5CFF5CFF5CFF5CFF5CFF5CFF0E
:1050A8007CFF7CFF7CFF7CFF7CFF5CFF5DFF5DFF7E
:1050B8005DFF5DFF5DFF5DFF5DFF5DFF5DFF5DFF08
:1050C8005CFFFBFE38FEAFE386B945C125C945D173
:1050D80025D125D925D925D925D924D144D144D1BB
:1050E80025D125D125D125D125D125D925D925D1F8
:1050F80025D125D145D125D145D145D145D1A6D9EF
:1051080025D125D925D925D925D925D125D125D1C7
:1051180025D125D125D125D125D125D125D125D1D7
:1051280024D924D924D924D924D944D165C1A6B1F4
:10513800CAB298FEDDFFDDFFFEFFFEFFBEFF9FFF48
:10514800DFFFDFFFDFFFDFFFFFFFFFFFFFFFFFFFE7
:10515800FFFFFFFFFFFFFFFFFFFFFFFFFFFFFFFF57
:10516800FFFFFFFFFEFFFEFFFEFFFEFFFEFFFEFF4D
:10517800FEFFFEFFFEFFFEFFFEFFFEFFFEFFFEFF3F
:10518800DEFFDEFFDEFFDEFFDEFFDEFFFEFFFEFFEF
:10519800FEFFFEFFFEFFFEFFFEFFFEFFFEFFFEFF1F
:1051A800FFF7FFF7FFF7FEF7FFF7FFFFFFFFFFFF30
:1051B800DFFFBFFFBFFFBFFFDFFFDFFFDFFFDFFF57
:1051C800FEFFDEFF3CFF91E486A1A6C165C945C983
:1051D80045D125D125D925D925D925D925D144D1B8
:1051E80025D125D125D125D125D125D925D925D1F7
:1051F80025D125D145D125D145D145D145D1A6D9EE
:1052080025D125D925D925D925D925D125D125D1C6
:1052180025D125D125D125D125D125D125D125D1D6
:1052280024D124D144D124D124D145D165C986B112
:1052380089AAD9FEBCFFFDF7FFF7FFFFDFFFBFFF1D
:10524800BFFFDFFFBFFFDFFFBFFFDFFFDFFFDFFFC6
:10525800BFFFDFFFDEFFDEFFFEFFFEFFFEFFFEFFFC
:10526800FFFFFFFFFFFFFFFFDFFFDFFFDFFFDFFFC6
:10527800FFFFFFFFFFFFFFFFFFFFFFFFFFFFFFFF36
:10528800DEFFDEFFDEFFDEFFDEFFDEFFDEFFDEFF2E
:10529800DEFFFEFFFEFFFEFFDEFFDEFFDEFFDEF7C6
:1052A800FFF7FFF7FFF7FFFFFFFFDFFFDFFFDFFF7E
:1052B800DFFFDFFFDFFFDFFFDFFFDFFFDFFFDFFFF6
:1052C800FDEFDDFF5BFF91DC65A186C165C904C9FF
:1052D80045D124D124D925D925D925D125D145D1C0
:1052E80025D125D125D125D125D125D925D925D1F6
:1052F80025D125D145D125D145D145D145D1A6D9ED
:1053080025D125D925D925D925D925D125D125D1C5
:1053180025D125D125D125D125D125D125D125D1D5
:1053280025D145D145D145D145D145D145C966B9E4
:10533800EBC299FEBDFFFEFFFFFFDFFFBFFF9FFF30
:10534800DFFFDFFFDFFFDFFFDFFFDFFFDFFFDFFF65
:10535800FFFFFFFFFFFFFFFFFFFFDFFFDEFFDEFFB7
:10536800DFFFDFFFDFFFDFFFDFFFDFFFDFFFDFFF45
:10537800DFFFDFFFDFFFDFFFDFFFDFFFDFFFDFFF35
:10538800FFFFFFFFFFFFFFFFFFFFFFFFDFFFDFFF65
:10539800FFFFFFFFFFFFFFFFFFFFFFFFFFFFFFFF15
:1053A800FFFFFFFFFFFFDFFFDFFFDFFFFFFFFFFF65
:1053B800FFFFFFFFFFFFFFFFFFFFFFFFFFFFFFFFF5
:1053C800FEF7FEFF7DFF71E4A7B125B966D165D967
:1053D80024D924D924D925D925D925D125D125D1F0
:1053E80025D125D125D125D125D125D925D925D1F5
:1053F80025D125D145D125D145D145D145D1A6D9EC
:1054080025D125D925D925D925D925D125D125D1C4
:1054180025D125D125D125D125D125D125D125D1D4
:1054280025D146D145D145C945D125D125D146C13A
:1054380009BAD3EC58F6BAE6FBDEDBE6DCEEBCF6DE
:10544800FAE6FAE6FAEEDAEEFAE6FAE6FAE6FAE664
:10545800FBE6FBE6FBE6DBE6DBEEDBEEBBEEDBF6D4
:10546800DBEEDBEEDBEEDBEEDBEEDBEEDBEEDBEEEC
:10547800DBEEDBEEDBEEDBEEDBEEDBEEDBEEDBEEDC
:10548800FCDEFCDEFCDEFCE6FCE6FCE6FCE6DCE63C
:10549800DCE6DCE6DCE6DCE6DCE6DCE6DCE6DCEEEC
:1054A800FBEEDBEEDBEEDBEEDAEEDAEEFAEEFAEE50
:1054B800FAE6FAE61AE71AE71ADFFAE6FAE6FAE689
:1054C8003BDFBAE6D6ED0CBBC8B925C925D104D94E
:1054D80024D924D924D925D925D125D125D145D1D7
:1054E80025D125D125D125D125D125D925D925D1F4
:1054F80025D125D145D125D145D145D145D1A6D9EB
:1055080025D125D925D925D925D925D125D125D1C3
:1055180025D125D125D125D125D125D125D125D1D3
:1055280024D924D125D145D145D145D125D125D955
:1055380024D1E3C844C9A5C984C164C965D124D1AB
:10554800A5B984B965C165D145D125D125D125D95C
:1055580005D905D906D906D926D926D926D906D9ED
:1055680006D9E6E0E6E8E6E806E126D946D146C9E6
:1055780025C946C966C965C164B984C184C964C9F5
:1055880065C185C965C145C166C146C946C946D117
:1055980046D146D146D146C965C965C185C185B9D7
:1055A80087B987B9A7B986B966B966C166C946D148
:1055B80025D125D925D925D925D904D125D165D9EC
:1055C80026C126C1C4C0E4C826D926D925D905D103
:1055D80025D925D125D125D124D924D924D924D9EF
:1055E80025D125D125D125D125D125D925D925D1F3
:1055F80025D125D145D125D145D145D145D1A6D9EA
:1056080025D125D925D925D925D925D125D125D1C2
:1056180025D125D125D125D125D125D125D125D1D2
:1056280024D124D125D125D125D125D125D125D1C4
:1056380025D145D924C923C144C965C945D145D116
:1056480045D125D105D126D926D946D145C945C147
:1056580045B965B165B165A945A945A945A945A952
:1056680045A925A925B125B145B166B166B166B987
:1056780046C905D105D125D945D945D904D1E4D0A4
:1056880065C924C145C986D925D125D166D925C979
:1056980046C965C965C165C165C965C965C965C9C1
:1056A80025D904D904D125D125D926D926D905D17A
:1056B80046D926D126C946C166B166A966A186998A
:1056C80049AA8ABA8AC208C245B945C125D145D96D
:1056D80025D125D125D125D125D124D924D904D91D
:1056E80025D125D125D125D125D125D925D925D1F2
:1056F80025D125D145D125D145D145D145D1A6D9E9
:1057080025D125D925D925D925D925D125D125D1C1
:1057180025D125D125D125D125D125D125D125D1D1
:1057280024D124D125D925D925D925D125D125D1AB
:1057380045D125D945D966D945D125C945C966D1A7
:1057480007D906D1E6C8E5C005B146B1C7A928AA58
:10575800AAB2EBAA2CB36DB3ADBBCEBBCEC3CFC33D
:10576800EDB3CDB38CBB4CB32BABCAAA69A207AAC5
:1057780086B125C1E5C0E5C8E5C805D126D966E9E1
:1057880065D145D125D904D9C4D8E4D824D945D17F
:1057980064C964C144C144C945C945D125D905D99D
:1057A800E4E8E4E8E4E005E105D925D925C926C1FE
:1057B80026B946B187A909AAECAAEFBB14D5F7ED1B
:1057C800B9F61AFFBAFE70E4A6A986C145C945D143
:1057D80025D125D125D125D125D125D125D925D901
:1057E80025D125D125D125D125D125D925D925D1F1
:1057F80025D125D145D125D145D145D145D1A6D9E8
:1058080025D125D925D925D925D925D125D125D1C0
:1058180025D125D125D125D125D125D125D125D1D0
:1058280045D125D125D905D925D925D925D145D180
:1058380025D105D1E5D0E5D025D167C966C125B107
:1058480067B1E9B9CCCAF0DB14ED18FE99FEBAFECF
:105858005CFF5DFF7DFF9EFF9EFFBEFFBEFFBEFF9C
:10586800FDFFDDFFBDFFBDFF9DFF5CFFFBFEB9FE39
:10587800F7FD35FD31EC2CCB49B2A6A925A905A920
:1058880025D125D104D905E125E904E1E3D844D996
:1058980024D124D944D925E126E126E106E105D918
:1058A80025D125D125C125B945A9A6A949B2CBBA83
:1058B800EFD3D3E4F7FDDBFE3CFF7DFF9EFFDEFF69
:1058C800FEF7FEFF5CFF71DC459986C145D125D9FD
:1058D80005D925D925D125D145D145D125D125D1E0
:1058E80025D125D125D125D125D125D925D925D1F0
:1058F80025D125D145D125D145D145D145D1A6D9E7
:1059080025D125D925D925D925D925D125D125D1BF
:1059180025D125D125D125D125D125D125D125D1CF
:1059280045D125D125D905D905D925D925D125D1BF
:1059380025D166D946D947D188C926A9C8A98EDBF9
:1059480096ED9AFE9EFFDEFFDEFFBDF7FEFFFFFF2E
:10595800BEFF9EFF9EFF7EFF9EFF9EFFBEFFDEFFF7
:10596800FEF7FEFFBEFFBEFFBEFFDEFFDEFFDEFF6F
:10597800BDFFDEFFFEFFDEFF5CFF37EE72CC2DAB16
:1059880066C104B966D166D904D124D944D903D1F2
:1059980024D924D925D9E5D8C5D0E5C806C126B962
:1059A800A7994AAA2DBB30CC13DD17EE1AFFDDFFED
:1059B800DDFFDEFFFEFFDEFFBEFFBEFF9DFF9DFF9A
:1059C800FFF7BEF71CFF72DC66A987C9E4D0E4D8EC
:1059D80004E104D925D925D145D145D125D126D1F0
:1059E80025D125D125D125D125D125D925D925D1EF
:1059F80025D125D145D125D145D145D145D1A6D9E6
:105A080025D125D925D925D925D925D125D125D1BE
:105A180025D125D125D125D125D125D125D125D1CE
:105A280045D145D125D125D925D905D905D925D996
:105A380005C925C967C146B187A9F0DB7AFE5DFFB4
:105A48009EFFBEFFDEF7FEF7FFF7FFF7FFF7FFF752
:105A5800FFF7FFF7FFFFFFFFDFFFDEFFDEF7DEF7F1
:105A6800FFEFFFF7DFF7BFFFDFF7FFF7FFEFFFEF0E
:105A7800FFF7FFEFFEEFDEE7FFEFFFFF9FFF1EFFE1
:105A880075FD2CC3A7A966B166C166C925C1A6C99B
:105A980024B144B145B1A7B129BA4DD372EC35FD53
:105AA8009AFEFBFE7DFFDEFFFEFFFEFFFEFFFEF718
:105AB800DEEFDEEFDEEFDEF7DEF7FFFFFFFFFFFFD3
:105AC800DEE7DEFF5DFF72DC87A187C945D145E1CE
